{
  "contractName": "Ballot",
  "abi": [
    {
      "inputs": [],
      "stateMutability": "payable",
      "type": "constructor"
    },
    {
      "inputs": [
        {
          "internalType": "uint256",
          "name": "",
          "type": "uint256"
        }
      ],
      "name": "addresses",
      "outputs": [
        {
          "internalType": "address",
          "name": "",
          "type": "address"
        }
      ],
      "stateMutability": "view",
      "type": "function"
    },
    {
      "inputs": [
        {
          "internalType": "uint256",
          "name": "",
          "type": "uint256"
        }
      ],
      "name": "proposals",
      "outputs": [
        {
          "internalType": "string",
          "name": "name",
          "type": "string"
        },
        {
          "internalType": "uint256",
          "name": "voteCount",
          "type": "uint256"
        }
      ],
      "stateMutability": "view",
      "type": "function"
    },
    {
      "inputs": [
        {
          "internalType": "address",
          "name": "",
          "type": "address"
        }
      ],
      "name": "voters",
      "outputs": [
        {
          "internalType": "bool",
          "name": "voted",
          "type": "bool"
        },
        {
          "internalType": "uint256",
          "name": "vote",
          "type": "uint256"
        }
      ],
      "stateMutability": "view",
      "type": "function"
    },
    {
      "inputs": [],
      "name": "ballotAddress",
      "outputs": [
        {
          "internalType": "address",
          "name": "",
          "type": "address"
        }
      ],
      "stateMutability": "view",
      "type": "function"
    },
    {
      "inputs": [
        {
          "internalType": "uint256",
          "name": "proposal",
          "type": "uint256"
        },
        {
          "internalType": "address",
          "name": "user",
          "type": "address"
        }
      ],
      "name": "vote",
      "outputs": [],
      "stateMutability": "nonpayable",
      "type": "function"
    },
    {
      "inputs": [],
      "name": "ballotVoters",
      "outputs": [
        {
          "internalType": "address[]",
          "name": "",
          "type": "address[]"
        }
      ],
      "stateMutability": "view",
      "type": "function"
    },
    {
      "inputs": [],
      "name": "ballotVotersInfo",
      "outputs": [
        {
          "internalType": "bytes[]",
          "name": "",
          "type": "bytes[]"
        }
      ],
      "stateMutability": "view",
      "type": "function"
    },
    {
      "inputs": [],
      "name": "winningProposal",
      "outputs": [
        {
          "internalType": "uint256",
          "name": "winningProposal_",
          "type": "uint256"
        }
      ],
      "stateMutability": "view",
      "type": "function"
    },
    {
      "inputs": [],
      "name": "winnerName",
      "outputs": [
        {
          "internalType": "string",
          "name": "winnerName_",
          "type": "string"
        }
      ],
      "stateMutability": "view",
      "type": "function"
    }
  ],
  "bytecode": "0x6080604052600360405180604001604052806040518060400160405280600381526020017f5965730000000000000000000000000000000000000000000000000000000000815250815260200160008152509080600181540180825580915050600190039060005260206000209060020201600090919091909150600082015181600001908162000091919062000452565b50602082015181600101555050600360405180604001604052806040518060400160405280600281526020017f4e6f00000000000000000000000000000000000000000000000000000000000081525081526020016000815250908060018154018082558091505060019003906000526020600020906002020160009091909190915060008201518160000190816200012b919062000452565b50602082015181600101555050600360405180604001604052806040518060400160405280600381526020017f54696500000000000000000000000000000000000000000000000000000000008152508152602001600081525090806001815401808255809150506001900390600052602060002090600202016000909190919091506000820151816000019081620001c5919062000452565b5060208201518160010155505062000539565b600081519050919050565b7f4e487b7100000000000000000000000000000000000000000000000000000000600052604160045260246000fd5b7f4e487b7100000000000000000000000000000000000000000000000000000000600052602260045260246000fd5b600060028204905060018216806200025a57607f821691505b60208210810362000270576200026f62000212565b5b50919050565b60008190508160005260206000209050919050565b60006020601f8301049050919050565b600082821b905092915050565b600060088302620002da7fffffffffffffffffffffffffffffffffffffffffffffffffffffffffffffffff826200029b565b620002e686836200029b565b95508019841693508086168417925050509392505050565b6000819050919050565b6000819050919050565b6000620003336200032d6200032784620002fe565b62000308565b620002fe565b9050919050565b6000819050919050565b6200034f8362000312565b620003676200035e826200033a565b848454620002a8565b825550505050565b600090565b6200037e6200036f565b6200038b81848462000344565b505050565b5b81811015620003b357620003a760008262000374565b60018101905062000391565b5050565b601f8211156200040257620003cc8162000276565b620003d7846200028b565b81016020851015620003e7578190505b620003ff620003f6856200028b565b83018262000390565b50505b505050565b600082821c905092915050565b6000620004276000198460080262000407565b1980831691505092915050565b600062000442838362000414565b9150826002028217905092915050565b6200045d82620001d8565b67ffffffffffffffff811115620004795762000478620001e3565b5b62000485825462000241565b62000492828285620003b7565b600060209050601f831160018114620004ca5760008415620004b5578287015190505b620004c1858262000434565b86555062000531565b601f198416620004da8662000276565b60005b828110156200050457848901518255600182019150602085019450602081019050620004dd565b8683101562000524578489015162000520601f89168262000414565b8355505b6001600288020188555050505b505050505050565b61116380620005496000396000f3fe608060405234801561001057600080fd5b50600436106100935760003560e01c8063a3ec138d11610066578063a3ec138d14610121578063a4293b4914610152578063d8335b5314610170578063e2ba53f01461018e578063edf26d9b146101ac57610093565b8063013cf08b1461009857806302d947ef146100c95780634deda3d7146100e5578063609ff1bd14610103575b600080fd5b6100b260048036038101906100ad91906109c1565b6101dc565b6040516100c0929190610a8d565b60405180910390f35b6100e360048036038101906100de9190610b1b565b610298565b005b6100ed610449565b6040516100fa9190610c19565b60405180910390f35b61010b610588565b6040516101189190610c3b565b60405180910390f35b61013b60048036038101906101369190610c56565b6106e8565b604051610149929190610c9e565b60405180910390f35b61015a610719565b6040516101679190610dde565b60405180910390f35b610178610832565b6040516101859190610e0f565b60405180910390f35b61019661083a565b6040516101a39190610e2a565b60405180910390f35b6101c660048036038101906101c191906109c1565b6108f6565b6040516101d39190610e0f565b60405180910390f35b600381815481106101ec57600080fd5b906000526020600020906002020160009150905080600001805461020f90610e7b565b80601f016020809104026020016040519081016040528092919081815260200182805461023b90610e7b565b80156102885780601f1061025d57610100808354040283529160200191610288565b820191906000526020600020905b81548152906001019060200180831161026b57829003601f168201915b5050505050908060010154905082565b60008060008373ffffffffffffffffffffffffffffffffffffffff1673ffffffffffffffffffffffffffffffffffffffff16815260200190815260200160002090508060000160009054906101000a900460ff161561032c576040517f08c379a000000000000000000000000000000000000000000000000000000000815260040161032390610ef8565b60405180910390fd5b60018160000160006101000a81548160ff0219169083151502179055508281600101819055506002816001015410610399576040517f08c379a000000000000000000000000000000000000000000000000000000000815260040161039090610f64565b60405180910390fd5b8160016000600254815260200190815260200160002060006101000a81548173ffffffffffffffffffffffffffffffffffffffff021916908373ffffffffffffffffffffffffffffffffffffffff1602179055506001600260008282546104009190610fb3565b9250508190555060016003848154811061041d5761041c610fe7565b5b9060005260206000209060020201600101600082825461043d9190610fb3565b92505081905550505050565b6060600060025411610490576040517f08c379a000000000000000000000000000000000000000000000000000000000815260040161048790611062565b60405180910390fd5b600060025467ffffffffffffffff8111156104ae576104ad611082565b5b6040519080825280602002602001820160405280156104dc5781602001602082028036833780820191505090505b50905060005b600254811015610580576001600082815260200190815260200160002060009054906101000a900473ffffffffffffffffffffffffffffffffffffffff1682828151811061053357610532610fe7565b5b602002602001019073ffffffffffffffffffffffffffffffffffffffff16908173ffffffffffffffffffffffffffffffffffffffff16815250508080610578906110b1565b9150506104e2565b508091505090565b60008060036000815481106105a05761059f610fe7565b5b906000526020600020906002020160010154905060005b60038054905081101561065e576000600382815481106105da576105d9610fe7565b5b9060005260206000209060020201600101541461064b57816003828154811061060657610605610fe7565b5b906000526020600020906002020160010154111561064a576003818154811061063257610631610fe7565b5b90600052602060002090600202016001015491508092505b5b8080610656906110b1565b9150506105b7565b50600360018154811061067457610673610fe7565b5b906000526020600020906002020160010154600360008154811061069b5761069a610fe7565b5b906000526020600020906002020160010154036106c75760016003805490506106c491906110f9565b91505b600081036106e45760016003805490506106e191906110f9565b91505b5090565b60006020528060005260406000206000915090508060000160009054906101000a900460ff16908060010154905082565b6060600060025467ffffffffffffffff81111561073957610738611082565b5b60405190808252806020026020018201604052801561076c57816020015b60608152602001906001900390816107575790505b50905060005b60025481101561082a576107f96000806001600085815260200190815260200160002060009054906101000a900473ffffffffffffffffffffffffffffffffffffffff1673ffffffffffffffffffffffffffffffffffffffff1673ffffffffffffffffffffffffffffffffffffffff16815260200190815260200160002060010154610929565b82828151811061080c5761080b610fe7565b5b60200260200101819052508080610822906110b1565b915050610772565b508091505090565b600030905090565b60606003610846610588565b8154811061085757610856610fe7565b5b9060005260206000209060020201600001805461087390610e7b565b80601f016020809104026020016040519081016040528092919081815260200182805461089f90610e7b565b80156108ec5780601f106108c1576101008083540402835291602001916108ec565b820191906000526020600020905b8154815290600101906020018083116108cf57829003601f168201915b5050505050905090565b60016020528060005260406000206000915054906101000a900473ffffffffffffffffffffffffffffffffffffffff1681565b6060602067ffffffffffffffff81111561094657610945611082565b5b6040519080825280601f01601f1916602001820160405280156109785781602001600182028036833780820191505090505b509050816020820152919050565b600080fd5b6000819050919050565b61099e8161098b565b81146109a957600080fd5b50565b6000813590506109bb81610995565b92915050565b6000602082840312156109d7576109d6610986565b5b60006109e5848285016109ac565b91505092915050565b600081519050919050565b600082825260208201905092915050565b60005b83811015610a28578082015181840152602081019050610a0d565b60008484015250505050565b6000601f19601f8301169050919050565b6000610a50826109ee565b610a5a81856109f9565b9350610a6a818560208601610a0a565b610a7381610a34565b840191505092915050565b610a878161098b565b82525050565b60006040820190508181036000830152610aa78185610a45565b9050610ab66020830184610a7e565b9392505050565b600073ffffffffffffffffffffffffffffffffffffffff82169050919050565b6000610ae882610abd565b9050919050565b610af881610add565b8114610b0357600080fd5b50565b600081359050610b1581610aef565b92915050565b60008060408385031215610b3257610b31610986565b5b6000610b40858286016109ac565b9250506020610b5185828601610b06565b9150509250929050565b600081519050919050565b600082825260208201905092915050565b6000819050602082019050919050565b610b9081610add565b82525050565b6000610ba28383610b87565b60208301905092915050565b6000602082019050919050565b6000610bc682610b5b565b610bd08185610b66565b9350610bdb83610b77565b8060005b83811015610c0c578151610bf38882610b96565b9750610bfe83610bae565b925050600181019050610bdf565b5085935050505092915050565b60006020820190508181036000830152610c338184610bbb565b905092915050565b6000602082019050610c506000830184610a7e565b92915050565b600060208284031215610c6c57610c6b610986565b5b6000610c7a84828501610b06565b91505092915050565b60008115159050919050565b610c9881610c83565b82525050565b6000604082019050610cb36000830185610c8f565b610cc06020830184610a7e565b9392505050565b600081519050919050565b600082825260208201905092915050565b6000819050602082019050919050565b600081519050919050565b600082825260208201905092915050565b6000610d1a82610cf3565b610d248185610cfe565b9350610d34818560208601610a0a565b610d3d81610a34565b840191505092915050565b6000610d548383610d0f565b905092915050565b6000602082019050919050565b6000610d7482610cc7565b610d7e8185610cd2565b935083602082028501610d9085610ce3565b8060005b85811015610dcc5784840389528151610dad8582610d48565b9450610db883610d5c565b925060208a01995050600181019050610d94565b50829750879550505050505092915050565b60006020820190508181036000830152610df88184610d69565b905092915050565b610e0981610add565b82525050565b6000602082019050610e246000830184610e00565b92915050565b60006020820190508181036000830152610e448184610a45565b905092915050565b7f4e487b7100000000000000000000000000000000000000000000000000000000600052602260045260246000fd5b60006002820490506001821680610e9357607f821691505b602082108103610ea657610ea5610e4c565b5b50919050565b7f416c726561647920766f7465642e000000000000000000000000000000000000600082015250565b6000610ee2600e836109f9565b9150610eed82610eac565b602082019050919050565b60006020820190508181036000830152610f1181610ed5565b9050919050565b7f566f7465206f6e6c7920796573206f72206e6f2e000000000000000000000000600082015250565b6000610f4e6014836109f9565b9150610f5982610f18565b602082019050919050565b60006020820190508181036000830152610f7d81610f41565b9050919050565b7f4e487b7100000000000000000000000000000000000000000000000000000000600052601160045260246000fd5b6000610fbe8261098b565b9150610fc98361098b565b9250828201905080821115610fe157610fe0610f84565b5b92915050565b7f4e487b7100000000000000000000000000000000000000000000000000000000600052603260045260246000fd5b7f4e6f20616464726573736573206861766520766f746564207965742e00000000600082015250565b600061104c601c836109f9565b915061105782611016565b602082019050919050565b6000602082019050818103600083015261107b8161103f565b9050919050565b7f4e487b7100000000000000000000000000000000000000000000000000000000600052604160045260246000fd5b60006110bc8261098b565b91507fffffffffffffffffffffffffffffffffffffffffffffffffffffffffffffffff82036110ee576110ed610f84565b5b600182019050919050565b60006111048261098b565b915061110f8361098b565b925082820390508181111561112757611126610f84565b5b9291505056fea2646970667358221220101a94b03e56807e9bd342d0e9b7dd7258c2681b06a9edaad428c45c83b52afe64736f6c63430008100033",
  "immutableReferences": {},
  "source": "// SPDX-License-Identifier: MIT\r\n\r\npragma solidity >=0.8.0 <0.9.0;\r\n\r\ncontract Ballot {\r\n   \r\n    struct Voter {\r\n        bool voted;\r\n        uint vote;\r\n    }\r\n\r\n    struct Proposal {\r\n        string name;\r\n        uint voteCount;\r\n    }\r\n\r\n    mapping(address => Voter) public voters;\r\n    mapping(uint => address) public addresses;\r\n    uint addressCount;\r\n\r\n    Proposal[] public proposals;\r\n\r\n    constructor() payable {\r\n\r\n        proposals.push(Proposal({\r\n            name: \"Yes\",\r\n            voteCount: 0\r\n        }));\r\n\r\n        proposals.push(Proposal({\r\n            name: \"No\",\r\n            voteCount: 0\r\n        }));\r\n\r\n        proposals.push(Proposal({\r\n            name: \"Tie\",\r\n            voteCount: 0\r\n        }));\r\n    }\r\n\r\n    function ballotAddress() public view returns (address) {\r\n        return address(this);\r\n    }\r\n\r\n    function vote(uint proposal, address user) public {\r\n        Voter storage sender = voters[user];\r\n        require(!sender.voted, \"Already voted.\");\r\n        sender.voted = true;\r\n        sender.vote = proposal;\r\n        require(sender.vote < 2, \"Vote only yes or no.\");\r\n        addresses[addressCount] = user;\r\n        addressCount += 1;\r\n        proposals[proposal].voteCount += 1;\r\n    }\r\n    \r\n    function ballotVoters() public view returns (address[] memory) {\r\n        require(addressCount > 0, \"No addresses have voted yet.\");\r\n        address[] memory voterArray = new address[](addressCount);\r\n        for (uint i = 0; i < addressCount; i++) {\r\n            voterArray[i] = addresses[i];\r\n        }\r\n        return voterArray;\r\n    }\r\n\r\n    function toBytes(uint256 x) private pure returns (bytes memory b) {\r\n        b = new bytes(32);\r\n        assembly { mstore(add(b, 32), x) }\r\n    }\r\n\r\n    function ballotVotersInfo() public view returns (bytes[] memory) {\r\n        bytes[] memory voterInfo = new bytes[](addressCount);\r\n        for (uint i = 0; i < addressCount; i++) {\r\n            voterInfo[i] = toBytes(voters[addresses[i]].vote);\r\n        }\r\n        return voterInfo;\r\n    }\r\n\r\n    function winningProposal() public view\r\n            returns (uint winningProposal_) {\r\n        uint winningVoteCount = proposals[0].voteCount;\r\n\r\n        for (uint p = 0; p < proposals.length; p++) {\r\n            if (proposals[p].voteCount != 0) {\r\n                if (proposals[p].voteCount > winningVoteCount) {\r\n                    winningVoteCount = proposals[p].voteCount;\r\n                    winningProposal_ = p;\r\n                }\r\n            }\r\n        }\r\n\r\n        if (proposals[0].voteCount == proposals[1].voteCount) {\r\n            winningProposal_ = proposals.length - 1;\r\n        }\r\n\r\n        if (winningVoteCount == 0) {\r\n            winningProposal_ = proposals.length - 1;\r\n        }\r\n    }\r\n\r\n    function winnerName() public view\r\n            returns (string memory winnerName_)\r\n    {\r\n        winnerName_ = proposals[winningProposal()].name;\r\n    }\r\n}\r\n\r\ncontract BallotFactory {\r\n\r\n    struct Voter {\r\n        bool voted;\r\n        uint vote;\r\n    }\r\n\r\n    Ballot[] public ballots;\r\n    \r\n    function create2AndSendEther(bytes32 _salt) public payable {\r\n        Ballot ballot = (new Ballot){value: msg.value, salt: _salt}();\r\n        ballots.push(ballot);\r\n    }\r\n\r\n    function getBallot(uint _index) public view returns (\r\n        address ballotAddress,\r\n        uint winningProposal_,\r\n        string memory winnerName_) {\r\n        \r\n        Ballot ballot = ballots[_index];\r\n        return (ballot.ballotAddress(), ballot.winningProposal(), ballot.winnerName());\r\n    }\r\n\r\n    function getCurrentBallot() public view returns (\r\n        address ballotAddress,\r\n        uint winningProposal_,\r\n        string memory winnerName_,\r\n        address[] memory ballotVoters_,\r\n        bytes[] memory ballotVotersInfo_,\r\n        uint amountOfBallots) {\r\n        uint length = ballots.length - 1;\r\n        amountOfBallots = ballots.length;\r\n        Ballot ballot = ballots[length];\r\n        return (ballot.ballotAddress(), ballot.winningProposal(), ballot.winnerName(), ballot.ballotVoters(), ballot.ballotVotersInfo(), amountOfBallots);\r\n    }\r\n\r\n    function voteCurrentBallot(uint _vote) public {\r\n        uint length = ballots.length - 1;\r\n        address user = msg.sender;\r\n        Ballot ballot = ballots[length];\r\n        ballot.vote(_vote, user);\r\n    }\r\n}",
  "sourcePath": "C:\\Users\\Mike\\Desktop\\JavaScript\\latetrain\\my-app\\contracts\\Ballot.sol",
  "compiler": {
    "name": "solc",
    "version": "0.8.16+commit.07a7930e.Emscripten.clang"
  },
  "schemaVersion": "3.4.7",
  "updatedAt": "2022-08-27T03:41:40.722Z",
  "networkType": "ethereum",
  "devdoc": {
    "kind": "dev",
    "methods": {},
    "version": 1
  },
  "userdoc": {
    "kind": "user",
    "methods": {},
    "version": 1
  }
}