{
  "contractName": "BallotFactory",
  "abi": [
    {
      "inputs": [
        {
          "internalType": "uint256",
          "name": "",
          "type": "uint256"
        }
      ],
      "name": "ballots",
      "outputs": [
        {
          "internalType": "contract Ballot",
          "name": "",
          "type": "address"
        }
      ],
      "stateMutability": "view",
      "type": "function",
      "constant": true
    },
    {
      "inputs": [
        {
          "internalType": "bytes32",
          "name": "_salt",
          "type": "bytes32"
        }
      ],
      "name": "create2AndSendEther",
      "outputs": [],
      "stateMutability": "payable",
      "type": "function",
      "payable": true
    },
    {
      "inputs": [
        {
          "internalType": "uint256",
          "name": "_index",
          "type": "uint256"
        }
      ],
      "name": "getBallot",
      "outputs": [
        {
          "internalType": "address",
          "name": "ballotAddress",
          "type": "address"
        },
        {
          "internalType": "uint256",
          "name": "winningProposal_",
          "type": "uint256"
        },
        {
          "internalType": "string",
          "name": "winnerName_",
          "type": "string"
        }
      ],
      "stateMutability": "view",
      "type": "function",
      "constant": true
    },
    {
      "inputs": [],
      "name": "getCurrentBallot",
      "outputs": [
        {
          "internalType": "address",
          "name": "ballotAddress",
          "type": "address"
        },
        {
          "internalType": "uint256",
          "name": "winningProposal_",
          "type": "uint256"
        },
        {
          "internalType": "string",
          "name": "winnerName_",
          "type": "string"
        },
        {
          "internalType": "address[]",
          "name": "ballotVoters_",
          "type": "address[]"
        },
        {
          "internalType": "bytes[]",
          "name": "ballotVotersInfo_",
          "type": "bytes[]"
        },
        {
          "internalType": "uint256",
          "name": "amountOfBallots",
          "type": "uint256"
        }
      ],
      "stateMutability": "view",
      "type": "function",
      "constant": true
    },
    {
      "inputs": [
        {
          "internalType": "uint256",
          "name": "_vote",
          "type": "uint256"
        }
      ],
      "name": "voteCurrentBallot",
      "outputs": [],
      "stateMutability": "nonpayable",
      "type": "function"
    }
  ],
  "bytecode": "0x608060405234801561001057600080fd5b506129dc806100206000396000f3fe608060405260043610620000505760003560e01c806322d043d91462000055578063297b5cb8146200008a5780635c632b3814620000aa5780638bcbd73d14620000ee578063f9d5ee75146200011c575b600080fd5b3480156200006257600080fd5b506200006d62000162565b604051620000819695949392919062000a9b565b60405180910390f35b620000a86004803603810190620000a2919062000b6c565b6200042d565b005b348015620000b757600080fd5b50620000d66004803603810190620000d0919062000bcf565b620004cc565b604051620000e5919062000c6c565b60405180910390f35b348015620000fb57600080fd5b506200011a600480360381019062000114919062000bcf565b6200050c565b005b3480156200012957600080fd5b5062000148600480360381019062000142919062000bcf565b620005e5565b604051620001599392919062000c89565b60405180910390f35b6000806060806060600080600160008054905062000181919062000cfc565b905060008054905091506000808281548110620001a357620001a262000d37565b5b9060005260206000200160009054906101000a900473ffffffffffffffffffffffffffffffffffffffff1690508073ffffffffffffffffffffffffffffffffffffffff1663d8335b536040518163ffffffff1660e01b8152600401602060405180830381865afa1580156200021c573d6000803e3d6000fd5b505050506040513d601f19601f8201168201806040525081019062000242919062000d97565b8173ffffffffffffffffffffffffffffffffffffffff1663609ff1bd6040518163ffffffff1660e01b8152600401602060405180830381865afa1580156200028e573d6000803e3d6000fd5b505050506040513d601f19601f82011682018060405250810190620002b4919062000de0565b8273ffffffffffffffffffffffffffffffffffffffff1663e2ba53f06040518163ffffffff1660e01b8152600401600060405180830381865afa15801562000300573d6000803e3d6000fd5b505050506040513d6000823e3d601f19601f820116820180604052508101906200032b919062000f54565b8373ffffffffffffffffffffffffffffffffffffffff16634deda3d76040518163ffffffff1660e01b8152600401600060405180830381865afa15801562000377573d6000803e3d6000fd5b505050506040513d6000823e3d601f19601f82011682018060405250810190620003a2919062001080565b8473ffffffffffffffffffffffffffffffffffffffff1663a4293b496040518163ffffffff1660e01b8152600401600060405180830381865afa158015620003ee573d6000803e3d6000fd5b505050506040513d6000823e3d601f19601f820116820180604052508101906200041991906200127c565b975097509750975097505050909192939495565b6000348290604051620004409062000798565b82906040518091039083f5905090508015801562000462573d6000803e3d6000fd5b5090506000819080600181540180825580915050600190039060005260206000200160009091909190916101000a81548173ffffffffffffffffffffffffffffffffffffffff021916908373ffffffffffffffffffffffffffffffffffffffff1602179055505050565b60008181548110620004dd57600080fd5b906000526020600020016000915054906101000a900473ffffffffffffffffffffffffffffffffffffffff1681565b6000600160008054905062000522919062000cfc565b90506000339050600080838154811062000541576200054062000d37565b5b9060005260206000200160009054906101000a900473ffffffffffffffffffffffffffffffffffffffff1690508073ffffffffffffffffffffffffffffffffffffffff166302d947ef85846040518363ffffffff1660e01b8152600401620005ab929190620012cd565b600060405180830381600087803b158015620005c657600080fd5b505af1158015620005db573d6000803e3d6000fd5b5050505050505050565b6000806060600080858154811062000602576200060162000d37565b5b9060005260206000200160009054906101000a900473ffffffffffffffffffffffffffffffffffffffff1690508073ffffffffffffffffffffffffffffffffffffffff1663d8335b536040518163ffffffff1660e01b8152600401602060405180830381865afa1580156200067b573d6000803e3d6000fd5b505050506040513d601f19601f82011682018060405250810190620006a1919062000d97565b8173ffffffffffffffffffffffffffffffffffffffff1663609ff1bd6040518163ffffffff1660e01b8152600401602060405180830381865afa158015620006ed573d6000803e3d6000fd5b505050506040513d601f19601f8201168201806040525081019062000713919062000de0565b8273ffffffffffffffffffffffffffffffffffffffff1663e2ba53f06040518163ffffffff1660e01b8152600401600060405180830381865afa1580156200075f573d6000803e3d6000fd5b505050506040513d6000823e3d601f19601f820116820180604052508101906200078a919062000f54565b935093509350509193909250565b6116ac80620012fb83390190565b600073ffffffffffffffffffffffffffffffffffffffff82169050919050565b6000620007d382620007a6565b9050919050565b620007e581620007c6565b82525050565b6000819050919050565b6200080081620007eb565b82525050565b600081519050919050565b600082825260208201905092915050565b60005b838110156200084257808201518184015260208101905062000825565b60008484015250505050565b6000601f19601f8301169050919050565b60006200086c8262000806565b62000878818562000811565b93506200088a81856020860162000822565b62000895816200084e565b840191505092915050565b600081519050919050565b600082825260208201905092915050565b6000819050602082019050919050565b620008d781620007c6565b82525050565b6000620008eb8383620008cc565b60208301905092915050565b6000602082019050919050565b60006200091182620008a0565b6200091d8185620008ab565b93506200092a83620008bc565b8060005b8381101562000961578151620009458882620008dd565b97506200095283620008f7565b9250506001810190506200092e565b5085935050505092915050565b600081519050919050565b600082825260208201905092915050565b6000819050602082019050919050565b600081519050919050565b600082825260208201905092915050565b6000620009c3826200099a565b620009cf8185620009a5565b9350620009e181856020860162000822565b620009ec816200084e565b840191505092915050565b600062000a058383620009b6565b905092915050565b6000602082019050919050565b600062000a27826200096e565b62000a33818562000979565b93508360208202850162000a47856200098a565b8060005b8581101562000a89578484038952815162000a678582620009f7565b945062000a748362000a0d565b925060208a0199505060018101905062000a4b565b50829750879550505050505092915050565b600060c08201905062000ab26000830189620007da565b62000ac16020830188620007f5565b818103604083015262000ad581876200085f565b9050818103606083015262000aeb818662000904565b9050818103608083015262000b01818562000a1a565b905062000b1260a0830184620007f5565b979650505050505050565b6000604051905090565b600080fd5b600080fd5b6000819050919050565b62000b468162000b31565b811462000b5257600080fd5b50565b60008135905062000b668162000b3b565b92915050565b60006020828403121562000b855762000b8462000b27565b5b600062000b958482850162000b55565b91505092915050565b62000ba981620007eb565b811462000bb557600080fd5b50565b60008135905062000bc98162000b9e565b92915050565b60006020828403121562000be85762000be762000b27565b5b600062000bf88482850162000bb8565b91505092915050565b6000819050919050565b600062000c2c62000c2662000c2084620007a6565b62000c01565b620007a6565b9050919050565b600062000c408262000c0b565b9050919050565b600062000c548262000c33565b9050919050565b62000c668162000c47565b82525050565b600060208201905062000c83600083018462000c5b565b92915050565b600060608201905062000ca06000830186620007da565b62000caf6020830185620007f5565b818103604083015262000cc381846200085f565b9050949350505050565b7f4e487b7100000000000000000000000000000000000000000000000000000000600052601160045260246000fd5b600062000d0982620007eb565b915062000d1683620007eb565b925082820390508181111562000d315762000d3062000ccd565b5b92915050565b7f4e487b7100000000000000000000000000000000000000000000000000000000600052603260045260246000fd5b62000d7181620007c6565b811462000d7d57600080fd5b50565b60008151905062000d918162000d66565b92915050565b60006020828403121562000db05762000daf62000b27565b5b600062000dc08482850162000d80565b91505092915050565b60008151905062000dda8162000b9e565b92915050565b60006020828403121562000df95762000df862000b27565b5b600062000e098482850162000dc9565b91505092915050565b600080fd5b600080fd5b7f4e487b7100000000000000000000000000000000000000000000000000000000600052604160045260246000fd5b62000e56826200084e565b810181811067ffffffffffffffff8211171562000e785762000e7762000e1c565b5b80604052505050565b600062000e8d62000b1d565b905062000e9b828262000e4b565b919050565b600067ffffffffffffffff82111562000ebe5762000ebd62000e1c565b5b62000ec9826200084e565b9050602081019050919050565b600062000eed62000ee78462000ea0565b62000e81565b90508281526020810184848401111562000f0c5762000f0b62000e17565b5b62000f1984828562000822565b509392505050565b600082601f83011262000f395762000f3862000e12565b5b815162000f4b84826020860162000ed6565b91505092915050565b60006020828403121562000f6d5762000f6c62000b27565b5b600082015167ffffffffffffffff81111562000f8e5762000f8d62000b2c565b5b62000f9c8482850162000f21565b91505092915050565b600067ffffffffffffffff82111562000fc35762000fc262000e1c565b5b602082029050602081019050919050565b600080fd5b600062000ff062000fea8462000fa5565b62000e81565b9050808382526020820190506020840283018581111562001016576200101562000fd4565b5b835b818110156200104357806200102e888262000d80565b84526020840193505060208101905062001018565b5050509392505050565b600082601f83011262001065576200106462000e12565b5b81516200107784826020860162000fd9565b91505092915050565b60006020828403121562001099576200109862000b27565b5b600082015167ffffffffffffffff811115620010ba57620010b962000b2c565b5b620010c8848285016200104d565b91505092915050565b600067ffffffffffffffff821115620010ef57620010ee62000e1c565b5b602082029050602081019050919050565b600067ffffffffffffffff8211156200111e576200111d62000e1c565b5b62001129826200084e565b9050602081019050919050565b60006200114d620011478462001100565b62000e81565b9050828152602081018484840111156200116c576200116b62000e17565b5b6200117984828562000822565b509392505050565b600082601f83011262001199576200119862000e12565b5b8151620011ab84826020860162001136565b91505092915050565b6000620011cb620011c584620010d1565b62000e81565b90508083825260208201905060208402830185811115620011f157620011f062000fd4565b5b835b818110156200123f57805167ffffffffffffffff8111156200121a576200121962000e12565b5b80860162001229898262001181565b85526020850194505050602081019050620011f3565b5050509392505050565b600082601f83011262001261576200126062000e12565b5b815162001273848260208601620011b4565b91505092915050565b60006020828403121562001295576200129462000b27565b5b600082015167ffffffffffffffff811115620012b657620012b562000b2c565b5b620012c48482850162001249565b91505092915050565b6000604082019050620012e46000830185620007f5565b620012f36020830184620007da565b939250505056fe6080604052600360405180604001604052806040518060400160405280600381526020017f5965730000000000000000000000000000000000000000000000000000000000815250815260200160008152509080600181540180825580915050600190039060005260206000209060020201600090919091909150600082015181600001908162000091919062000452565b50602082015181600101555050600360405180604001604052806040518060400160405280600281526020017f4e6f00000000000000000000000000000000000000000000000000000000000081525081526020016000815250908060018154018082558091505060019003906000526020600020906002020160009091909190915060008201518160000190816200012b919062000452565b50602082015181600101555050600360405180604001604052806040518060400160405280600381526020017f54696500000000000000000000000000000000000000000000000000000000008152508152602001600081525090806001815401808255809150506001900390600052602060002090600202016000909190919091506000820151816000019081620001c5919062000452565b5060208201518160010155505062000539565b600081519050919050565b7f4e487b7100000000000000000000000000000000000000000000000000000000600052604160045260246000fd5b7f4e487b7100000000000000000000000000000000000000000000000000000000600052602260045260246000fd5b600060028204905060018216806200025a57607f821691505b60208210810362000270576200026f62000212565b5b50919050565b60008190508160005260206000209050919050565b60006020601f8301049050919050565b600082821b905092915050565b600060088302620002da7fffffffffffffffffffffffffffffffffffffffffffffffffffffffffffffffff826200029b565b620002e686836200029b565b95508019841693508086168417925050509392505050565b6000819050919050565b6000819050919050565b6000620003336200032d6200032784620002fe565b62000308565b620002fe565b9050919050565b6000819050919050565b6200034f8362000312565b620003676200035e826200033a565b848454620002a8565b825550505050565b600090565b6200037e6200036f565b6200038b81848462000344565b505050565b5b81811015620003b357620003a760008262000374565b60018101905062000391565b5050565b601f8211156200040257620003cc8162000276565b620003d7846200028b565b81016020851015620003e7578190505b620003ff620003f6856200028b565b83018262000390565b50505b505050565b600082821c905092915050565b6000620004276000198460080262000407565b1980831691505092915050565b600062000442838362000414565b9150826002028217905092915050565b6200045d82620001d8565b67ffffffffffffffff811115620004795762000478620001e3565b5b62000485825462000241565b62000492828285620003b7565b600060209050601f831160018114620004ca5760008415620004b5578287015190505b620004c1858262000434565b86555062000531565b601f198416620004da8662000276565b60005b828110156200050457848901518255600182019150602085019450602081019050620004dd565b8683101562000524578489015162000520601f89168262000414565b8355505b6001600288020188555050505b505050505050565b61116380620005496000396000f3fe608060405234801561001057600080fd5b50600436106100935760003560e01c8063a3ec138d11610066578063a3ec138d14610121578063a4293b4914610152578063d8335b5314610170578063e2ba53f01461018e578063edf26d9b146101ac57610093565b8063013cf08b1461009857806302d947ef146100c95780634deda3d7146100e5578063609ff1bd14610103575b600080fd5b6100b260048036038101906100ad91906109c1565b6101dc565b6040516100c0929190610a8d565b60405180910390f35b6100e360048036038101906100de9190610b1b565b610298565b005b6100ed610449565b6040516100fa9190610c19565b60405180910390f35b61010b610588565b6040516101189190610c3b565b60405180910390f35b61013b60048036038101906101369190610c56565b6106e8565b604051610149929190610c9e565b60405180910390f35b61015a610719565b6040516101679190610dde565b60405180910390f35b610178610832565b6040516101859190610e0f565b60405180910390f35b61019661083a565b6040516101a39190610e2a565b60405180910390f35b6101c660048036038101906101c191906109c1565b6108f6565b6040516101d39190610e0f565b60405180910390f35b600381815481106101ec57600080fd5b906000526020600020906002020160009150905080600001805461020f90610e7b565b80601f016020809104026020016040519081016040528092919081815260200182805461023b90610e7b565b80156102885780601f1061025d57610100808354040283529160200191610288565b820191906000526020600020905b81548152906001019060200180831161026b57829003601f168201915b5050505050908060010154905082565b60008060008373ffffffffffffffffffffffffffffffffffffffff1673ffffffffffffffffffffffffffffffffffffffff16815260200190815260200160002090508060000160009054906101000a900460ff161561032c576040517f08c379a000000000000000000000000000000000000000000000000000000000815260040161032390610ef8565b60405180910390fd5b60018160000160006101000a81548160ff0219169083151502179055508281600101819055506002816001015410610399576040517f08c379a000000000000000000000000000000000000000000000000000000000815260040161039090610f64565b60405180910390fd5b8160016000600254815260200190815260200160002060006101000a81548173ffffffffffffffffffffffffffffffffffffffff021916908373ffffffffffffffffffffffffffffffffffffffff1602179055506001600260008282546104009190610fb3565b9250508190555060016003848154811061041d5761041c610fe7565b5b9060005260206000209060020201600101600082825461043d9190610fb3565b92505081905550505050565b6060600060025411610490576040517f08c379a000000000000000000000000000000000000000000000000000000000815260040161048790611062565b60405180910390fd5b600060025467ffffffffffffffff8111156104ae576104ad611082565b5b6040519080825280602002602001820160405280156104dc5781602001602082028036833780820191505090505b50905060005b600254811015610580576001600082815260200190815260200160002060009054906101000a900473ffffffffffffffffffffffffffffffffffffffff1682828151811061053357610532610fe7565b5b602002602001019073ffffffffffffffffffffffffffffffffffffffff16908173ffffffffffffffffffffffffffffffffffffffff16815250508080610578906110b1565b9150506104e2565b508091505090565b60008060036000815481106105a05761059f610fe7565b5b906000526020600020906002020160010154905060005b60038054905081101561065e576000600382815481106105da576105d9610fe7565b5b9060005260206000209060020201600101541461064b57816003828154811061060657610605610fe7565b5b906000526020600020906002020160010154111561064a576003818154811061063257610631610fe7565b5b90600052602060002090600202016001015491508092505b5b8080610656906110b1565b9150506105b7565b50600360018154811061067457610673610fe7565b5b906000526020600020906002020160010154600360008154811061069b5761069a610fe7565b5b906000526020600020906002020160010154036106c75760016003805490506106c491906110f9565b91505b600081036106e45760016003805490506106e191906110f9565b91505b5090565b60006020528060005260406000206000915090508060000160009054906101000a900460ff16908060010154905082565b6060600060025467ffffffffffffffff81111561073957610738611082565b5b60405190808252806020026020018201604052801561076c57816020015b60608152602001906001900390816107575790505b50905060005b60025481101561082a576107f96000806001600085815260200190815260200160002060009054906101000a900473ffffffffffffffffffffffffffffffffffffffff1673ffffffffffffffffffffffffffffffffffffffff1673ffffffffffffffffffffffffffffffffffffffff16815260200190815260200160002060010154610929565b82828151811061080c5761080b610fe7565b5b60200260200101819052508080610822906110b1565b915050610772565b508091505090565b600030905090565b60606003610846610588565b8154811061085757610856610fe7565b5b9060005260206000209060020201600001805461087390610e7b565b80601f016020809104026020016040519081016040528092919081815260200182805461089f90610e7b565b80156108ec5780601f106108c1576101008083540402835291602001916108ec565b820191906000526020600020905b8154815290600101906020018083116108cf57829003601f168201915b5050505050905090565b60016020528060005260406000206000915054906101000a900473ffffffffffffffffffffffffffffffffffffffff1681565b6060602067ffffffffffffffff81111561094657610945611082565b5b6040519080825280601f01601f1916602001820160405280156109785781602001600182028036833780820191505090505b509050816020820152919050565b600080fd5b6000819050919050565b61099e8161098b565b81146109a957600080fd5b50565b6000813590506109bb81610995565b92915050565b6000602082840312156109d7576109d6610986565b5b60006109e5848285016109ac565b91505092915050565b600081519050919050565b600082825260208201905092915050565b60005b83811015610a28578082015181840152602081019050610a0d565b60008484015250505050565b6000601f19601f8301169050919050565b6000610a50826109ee565b610a5a81856109f9565b9350610a6a818560208601610a0a565b610a7381610a34565b840191505092915050565b610a878161098b565b82525050565b60006040820190508181036000830152610aa78185610a45565b9050610ab66020830184610a7e565b9392505050565b600073ffffffffffffffffffffffffffffffffffffffff82169050919050565b6000610ae882610abd565b9050919050565b610af881610add565b8114610b0357600080fd5b50565b600081359050610b1581610aef565b92915050565b60008060408385031215610b3257610b31610986565b5b6000610b40858286016109ac565b9250506020610b5185828601610b06565b9150509250929050565b600081519050919050565b600082825260208201905092915050565b6000819050602082019050919050565b610b9081610add565b82525050565b6000610ba28383610b87565b60208301905092915050565b6000602082019050919050565b6000610bc682610b5b565b610bd08185610b66565b9350610bdb83610b77565b8060005b83811015610c0c578151610bf38882610b96565b9750610bfe83610bae565b925050600181019050610bdf565b5085935050505092915050565b60006020820190508181036000830152610c338184610bbb565b905092915050565b6000602082019050610c506000830184610a7e565b92915050565b600060208284031215610c6c57610c6b610986565b5b6000610c7a84828501610b06565b91505092915050565b60008115159050919050565b610c9881610c83565b82525050565b6000604082019050610cb36000830185610c8f565b610cc06020830184610a7e565b9392505050565b600081519050919050565b600082825260208201905092915050565b6000819050602082019050919050565b600081519050919050565b600082825260208201905092915050565b6000610d1a82610cf3565b610d248185610cfe565b9350610d34818560208601610a0a565b610d3d81610a34565b840191505092915050565b6000610d548383610d0f565b905092915050565b6000602082019050919050565b6000610d7482610cc7565b610d7e8185610cd2565b935083602082028501610d9085610ce3565b8060005b85811015610dcc5784840389528151610dad8582610d48565b9450610db883610d5c565b925060208a01995050600181019050610d94565b50829750879550505050505092915050565b60006020820190508181036000830152610df88184610d69565b905092915050565b610e0981610add565b82525050565b6000602082019050610e246000830184610e00565b92915050565b60006020820190508181036000830152610e448184610a45565b905092915050565b7f4e487b7100000000000000000000000000000000000000000000000000000000600052602260045260246000fd5b60006002820490506001821680610e9357607f821691505b602082108103610ea657610ea5610e4c565b5b50919050565b7f416c726561647920766f7465642e000000000000000000000000000000000000600082015250565b6000610ee2600e836109f9565b9150610eed82610eac565b602082019050919050565b60006020820190508181036000830152610f1181610ed5565b9050919050565b7f566f7465206f6e6c7920796573206f72206e6f2e000000000000000000000000600082015250565b6000610f4e6014836109f9565b9150610f5982610f18565b602082019050919050565b60006020820190508181036000830152610f7d81610f41565b9050919050565b7f4e487b7100000000000000000000000000000000000000000000000000000000600052601160045260246000fd5b6000610fbe8261098b565b9150610fc98361098b565b9250828201905080821115610fe157610fe0610f84565b5b92915050565b7f4e487b7100000000000000000000000000000000000000000000000000000000600052603260045260246000fd5b7f4e6f20616464726573736573206861766520766f746564207965742e00000000600082015250565b600061104c601c836109f9565b915061105782611016565b602082019050919050565b6000602082019050818103600083015261107b8161103f565b9050919050565b7f4e487b7100000000000000000000000000000000000000000000000000000000600052604160045260246000fd5b60006110bc8261098b565b91507fffffffffffffffffffffffffffffffffffffffffffffffffffffffffffffffff82036110ee576110ed610f84565b5b600182019050919050565b60006111048261098b565b915061110f8361098b565b925082820390508181111561112757611126610f84565b5b9291505056fea2646970667358221220101a94b03e56807e9bd342d0e9b7dd7258c2681b06a9edaad428c45c83b52afe64736f6c63430008100033a264697066735822122024dec02b503fc99e935843866f63f81af31847e918bee4508facdd4b63db19ea64736f6c63430008100033",
  "immutableReferences": {},
  "source": "// SPDX-License-Identifier: MIT\r\n\r\npragma solidity >=0.8.0 <0.9.0;\r\n\r\ncontract Ballot {\r\n   \r\n    struct Voter {\r\n        bool voted;\r\n        uint vote;\r\n    }\r\n\r\n    struct Proposal {\r\n        string name;\r\n        uint voteCount;\r\n    }\r\n\r\n    mapping(address => Voter) public voters;\r\n    mapping(uint => address) public addresses;\r\n    uint addressCount;\r\n\r\n    Proposal[] public proposals;\r\n\r\n    constructor() payable {\r\n\r\n        proposals.push(Proposal({\r\n            name: \"Yes\",\r\n            voteCount: 0\r\n        }));\r\n\r\n        proposals.push(Proposal({\r\n            name: \"No\",\r\n            voteCount: 0\r\n        }));\r\n\r\n        proposals.push(Proposal({\r\n            name: \"Tie\",\r\n            voteCount: 0\r\n        }));\r\n    }\r\n\r\n    function ballotAddress() public view returns (address) {\r\n        return address(this);\r\n    }\r\n\r\n    function vote(uint proposal, address user) public {\r\n        Voter storage sender = voters[user];\r\n        require(!sender.voted, \"Already voted.\");\r\n        sender.voted = true;\r\n        sender.vote = proposal;\r\n        require(sender.vote < 2, \"Vote only yes or no.\");\r\n        addresses[addressCount] = user;\r\n        addressCount += 1;\r\n        proposals[proposal].voteCount += 1;\r\n    }\r\n    \r\n    function ballotVoters() public view returns (address[] memory) {\r\n        require(addressCount > 0, \"No addresses have voted yet.\");\r\n        address[] memory voterArray = new address[](addressCount);\r\n        for (uint i = 0; i < addressCount; i++) {\r\n            voterArray[i] = addresses[i];\r\n        }\r\n        return voterArray;\r\n    }\r\n\r\n    function toBytes(uint256 x) private pure returns (bytes memory b) {\r\n        b = new bytes(32);\r\n        assembly { mstore(add(b, 32), x) }\r\n    }\r\n\r\n    function ballotVotersInfo() public view returns (bytes[] memory) {\r\n        bytes[] memory voterInfo = new bytes[](addressCount);\r\n        for (uint i = 0; i < addressCount; i++) {\r\n            voterInfo[i] = toBytes(voters[addresses[i]].vote);\r\n        }\r\n        return voterInfo;\r\n    }\r\n\r\n    function winningProposal() public view\r\n            returns (uint winningProposal_) {\r\n        uint winningVoteCount = proposals[0].voteCount;\r\n\r\n        for (uint p = 0; p < proposals.length; p++) {\r\n            if (proposals[p].voteCount != 0) {\r\n                if (proposals[p].voteCount > winningVoteCount) {\r\n                    winningVoteCount = proposals[p].voteCount;\r\n                    winningProposal_ = p;\r\n                }\r\n            }\r\n        }\r\n\r\n        if (proposals[0].voteCount == proposals[1].voteCount) {\r\n            winningProposal_ = proposals.length - 1;\r\n        }\r\n\r\n        if (winningVoteCount == 0) {\r\n            winningProposal_ = proposals.length - 1;\r\n        }\r\n    }\r\n\r\n    function winnerName() public view\r\n            returns (string memory winnerName_)\r\n    {\r\n        winnerName_ = proposals[winningProposal()].name;\r\n    }\r\n}\r\n\r\ncontract BallotFactory {\r\n\r\n    struct Voter {\r\n        bool voted;\r\n        uint vote;\r\n    }\r\n\r\n    Ballot[] public ballots;\r\n    \r\n    function create2AndSendEther(bytes32 _salt) public payable {\r\n        Ballot ballot = (new Ballot){value: msg.value, salt: _salt}();\r\n        ballots.push(ballot);\r\n    }\r\n\r\n    function getBallot(uint _index) public view returns (\r\n        address ballotAddress,\r\n        uint winningProposal_,\r\n        string memory winnerName_) {\r\n        \r\n        Ballot ballot = ballots[_index];\r\n        return (ballot.ballotAddress(), ballot.winningProposal(), ballot.winnerName());\r\n    }\r\n\r\n    function getCurrentBallot() public view returns (\r\n        address ballotAddress,\r\n        uint winningProposal_,\r\n        string memory winnerName_,\r\n        address[] memory ballotVoters_,\r\n        bytes[] memory ballotVotersInfo_,\r\n        uint amountOfBallots) {\r\n        uint length = ballots.length - 1;\r\n        amountOfBallots = ballots.length;\r\n        Ballot ballot = ballots[length];\r\n        return (ballot.ballotAddress(), ballot.winningProposal(), ballot.winnerName(), ballot.ballotVoters(), ballot.ballotVotersInfo(), amountOfBallots);\r\n    }\r\n\r\n    function voteCurrentBallot(uint _vote) public {\r\n        uint length = ballots.length - 1;\r\n        address user = msg.sender;\r\n        Ballot ballot = ballots[length];\r\n        ballot.vote(_vote, user);\r\n    }\r\n}",
  "sourcePath": "C:\\Users\\Mike\\Desktop\\JavaScript\\latetrain\\my-app\\contracts\\Ballot.sol",
  "compiler": {
    "name": "solc",
    "version": "0.8.16+commit.07a7930e.Emscripten.clang"
  },
  "schemaVersion": "3.4.7",
  "updatedAt": "2022-08-27T03:41:40.740Z",
  "networkType": "ethereum",
  "devdoc": {
    "kind": "dev",
    "methods": {},
    "version": 1
  },
  "userdoc": {
    "kind": "user",
    "methods": {},
    "version": 1
  }
}