{
  "contractName": "BallotFactory",
  "abi": [
    {
      "inputs": [],
      "stateMutability": "nonpayable",
      "type": "constructor"
    },
    {
      "anonymous": false,
      "inputs": [
        {
          "indexed": true,
          "internalType": "bytes32",
          "name": "requestId",
          "type": "bytes32"
        },
        {
          "indexed": false,
          "internalType": "uint256",
          "name": "eta",
          "type": "uint256"
        }
      ],
      "name": "RequestEta",
      "type": "event"
    },
    {
      "inputs": [
        {
          "internalType": "uint256",
          "name": "",
          "type": "uint256"
        }
      ],
      "name": "ballots",
      "outputs": [
        {
          "internalType": "contract Ballot",
          "name": "",
          "type": "address"
        }
      ],
      "stateMutability": "view",
      "type": "function",
      "constant": true
    },
    {
      "inputs": [],
      "name": "eta",
      "outputs": [
        {
          "internalType": "uint256",
          "name": "",
          "type": "uint256"
        }
      ],
      "stateMutability": "view",
      "type": "function",
      "constant": true
    },
    {
      "inputs": [],
      "name": "viewStatus",
      "outputs": [
        {
          "internalType": "bool",
          "name": "closed_",
          "type": "bool"
        }
      ],
      "stateMutability": "view",
      "type": "function",
      "constant": true
    },
    {
      "inputs": [
        {
          "internalType": "uint256",
          "name": "",
          "type": "uint256"
        }
      ],
      "name": "viewFuture",
      "outputs": [
        {
          "internalType": "uint256",
          "name": "",
          "type": "uint256"
        }
      ],
      "stateMutability": "view",
      "type": "function",
      "constant": true
    },
    {
      "inputs": [],
      "name": "viewNow",
      "outputs": [
        {
          "internalType": "uint256",
          "name": "",
          "type": "uint256"
        }
      ],
      "stateMutability": "view",
      "type": "function",
      "constant": true
    },
    {
      "inputs": [
        {
          "internalType": "bytes32",
          "name": "_salt",
          "type": "bytes32"
        }
      ],
      "name": "create2",
      "outputs": [],
      "stateMutability": "nonpayable",
      "type": "function"
    },
    {
      "inputs": [
        {
          "internalType": "uint256",
          "name": "_index",
          "type": "uint256"
        }
      ],
      "name": "getBallot",
      "outputs": [
        {
          "internalType": "address",
          "name": "ballotAddress",
          "type": "address"
        },
        {
          "internalType": "uint256",
          "name": "winningProposal_",
          "type": "uint256"
        },
        {
          "internalType": "string",
          "name": "winnerName_",
          "type": "string"
        }
      ],
      "stateMutability": "view",
      "type": "function",
      "constant": true
    },
    {
      "inputs": [],
      "name": "getCurrentBallot",
      "outputs": [
        {
          "internalType": "address",
          "name": "ballotAddress",
          "type": "address"
        },
        {
          "internalType": "uint256",
          "name": "winningProposal_",
          "type": "uint256"
        },
        {
          "internalType": "string",
          "name": "winnerName_",
          "type": "string"
        },
        {
          "internalType": "address[]",
          "name": "ballotVoters_",
          "type": "address[]"
        },
        {
          "internalType": "bytes[]",
          "name": "ballotVotersInfo_",
          "type": "bytes[]"
        },
        {
          "internalType": "uint256",
          "name": "amountOfBallots",
          "type": "uint256"
        },
        {
          "internalType": "address",
          "name": "whosCreator",
          "type": "address"
        }
      ],
      "stateMutability": "view",
      "type": "function",
      "constant": true
    },
    {
      "inputs": [
        {
          "internalType": "uint256",
          "name": "_vote",
          "type": "uint256"
        }
      ],
      "name": "voteCurrentBallot",
      "outputs": [],
      "stateMutability": "nonpayable",
      "type": "function"
    }
  ],
  "bytecode": "0x608060405234801561001057600080fd5b50612eda806100206000396000f3fe60806040523480156200001157600080fd5b5060043610620000a05760003560e01c80638bcbd73d116200006f5780638bcbd73d14620001455780639203c74c1462000165578063ac60a269146200019b578063f7992d8514620001bd578063f9d5ee7514620001df57620000a0565b806322d043d914620000a5578063372791b614620000cd5780635c632b3814620000ef57806378ab7b3e1462000125575b600080fd5b620000af62000217565b604051620000c4979695949392919062000cc0565b60405180910390f35b620000d76200055c565b604051620000e6919062000d52565b60405180910390f35b6200010d600480360381019062000107919062000db4565b62000564565b6040516200011c919062000e51565b60405180910390f35b6200014360048036038101906200013d919062000ea9565b620005a4565b005b6200016360048036038101906200015d919062000db4565b62000640565b005b6200018360048036038101906200017d919062000db4565b62000719565b60405162000192919062000d52565b60405180910390f35b620001a562000732565b604051620001b4919062000ef8565b60405180910390f35b620001c762000804565b604051620001d6919062000d52565b60405180910390f35b620001fd6004803603810190620001f7919062000db4565b6200080a565b6040516200020e9392919062000f15565b60405180910390f35b60008060608060606000806000600160008054905062000238919062000f88565b9050600080549050925060008082815481106200025a576200025962000fc3565b5b9060005260206000200160009054906101000a900473ffffffffffffffffffffffffffffffffffffffff1690508073ffffffffffffffffffffffffffffffffffffffff1663d8335b536040518163ffffffff1660e01b8152600401602060405180830381865afa158015620002d3573d6000803e3d6000fd5b505050506040513d601f19601f82011682018060405250810190620002f9919062001023565b8173ffffffffffffffffffffffffffffffffffffffff1663609ff1bd6040518163ffffffff1660e01b8152600401602060405180830381865afa15801562000345573d6000803e3d6000fd5b505050506040513d601f19601f820116820180604052508101906200036b91906200106c565b8273ffffffffffffffffffffffffffffffffffffffff1663e2ba53f06040518163ffffffff1660e01b8152600401600060405180830381865afa158015620003b7573d6000803e3d6000fd5b505050506040513d6000823e3d601f19601f82011682018060405250810190620003e29190620011e0565b8373ffffffffffffffffffffffffffffffffffffffff16634deda3d76040518163ffffffff1660e01b8152600401600060405180830381865afa1580156200042e573d6000803e3d6000fd5b505050506040513d6000823e3d601f19601f820116820180604052508101906200045991906200130c565b8473ffffffffffffffffffffffffffffffffffffffff1663a4293b496040518163ffffffff1660e01b8152600401600060405180830381865afa158015620004a5573d6000803e3d6000fd5b505050506040513d6000823e3d601f19601f82011682018060405250810190620004d0919062001508565b888673ffffffffffffffffffffffffffffffffffffffff1663c7063fa06040518163ffffffff1660e01b8152600401602060405180830381865afa1580156200051d573d6000803e3d6000fd5b505050506040513d601f19601f8201168201806040525081019062000543919062001023565b9850985098509850985098509850505090919293949596565b600042905090565b600081815481106200057557600080fd5b906000526020600020016000915054906101000a900473ffffffffffffffffffffffffffffffffffffffff1681565b600081604051620005b590620009bd565b8190604051809103906000f5905080158015620005d6573d6000803e3d6000fd5b5090506000819080600181540180825580915050600190039060005260206000200160009091909190916101000a81548173ffffffffffffffffffffffffffffffffffffffff021916908373ffffffffffffffffffffffffffffffffffffffff1602179055505050565b6000600160008054905062000656919062000f88565b90506000339050600080838154811062000675576200067462000fc3565b5b9060005260206000200160009054906101000a900473ffffffffffffffffffffffffffffffffffffffff1690508073ffffffffffffffffffffffffffffffffffffffff166302d947ef85846040518363ffffffff1660e01b8152600401620006df92919062001559565b600060405180830381600087803b158015620006fa57600080fd5b505af11580156200070f573d6000803e3d6000fd5b5050505050505050565b6000610ec4426200072b919062001586565b9050919050565b600080600060016000805490506200074b919062000f88565b815481106200075f576200075e62000fc3565b5b9060005260206000200160009054906101000a900473ffffffffffffffffffffffffffffffffffffffff1690508073ffffffffffffffffffffffffffffffffffffffff1663c2b6b58c6040518163ffffffff1660e01b8152600401602060405180830381865afa158015620007d8573d6000803e3d6000fd5b505050506040513d601f19601f82011682018060405250810190620007fe9190620015f2565b91505090565b60015481565b6000806060600080858154811062000827576200082662000fc3565b5b9060005260206000200160009054906101000a900473ffffffffffffffffffffffffffffffffffffffff1690508073ffffffffffffffffffffffffffffffffffffffff1663d8335b536040518163ffffffff1660e01b8152600401602060405180830381865afa158015620008a0573d6000803e3d6000fd5b505050506040513d601f19601f82011682018060405250810190620008c6919062001023565b8173ffffffffffffffffffffffffffffffffffffffff1663609ff1bd6040518163ffffffff1660e01b8152600401602060405180830381865afa15801562000912573d6000803e3d6000fd5b505050506040513d601f19601f820116820180604052508101906200093891906200106c565b8273ffffffffffffffffffffffffffffffffffffffff1663e2ba53f06040518163ffffffff1660e01b8152600401600060405180830381865afa15801562000984573d6000803e3d6000fd5b505050506040513d6000823e3d601f19601f82011682018060405250810190620009af9190620011e0565b935093509350509193909250565b611880806200162583390190565b600073ffffffffffffffffffffffffffffffffffffffff82169050919050565b6000620009f882620009cb565b9050919050565b62000a0a81620009eb565b82525050565b6000819050919050565b62000a258162000a10565b82525050565b600081519050919050565b600082825260208201905092915050565b60005b8381101562000a6757808201518184015260208101905062000a4a565b60008484015250505050565b6000601f19601f8301169050919050565b600062000a918262000a2b565b62000a9d818562000a36565b935062000aaf81856020860162000a47565b62000aba8162000a73565b840191505092915050565b600081519050919050565b600082825260208201905092915050565b6000819050602082019050919050565b62000afc81620009eb565b82525050565b600062000b10838362000af1565b60208301905092915050565b6000602082019050919050565b600062000b368262000ac5565b62000b42818562000ad0565b935062000b4f8362000ae1565b8060005b8381101562000b8657815162000b6a888262000b02565b975062000b778362000b1c565b92505060018101905062000b53565b5085935050505092915050565b600081519050919050565b600082825260208201905092915050565b6000819050602082019050919050565b600081519050919050565b600082825260208201905092915050565b600062000be88262000bbf565b62000bf4818562000bca565b935062000c0681856020860162000a47565b62000c118162000a73565b840191505092915050565b600062000c2a838362000bdb565b905092915050565b6000602082019050919050565b600062000c4c8262000b93565b62000c58818562000b9e565b93508360208202850162000c6c8562000baf565b8060005b8581101562000cae578484038952815162000c8c858262000c1c565b945062000c998362000c32565b925060208a0199505060018101905062000c70565b50829750879550505050505092915050565b600060e08201905062000cd7600083018a620009ff565b62000ce6602083018962000a1a565b818103604083015262000cfa818862000a84565b9050818103606083015262000d10818762000b29565b9050818103608083015262000d26818662000c3f565b905062000d3760a083018562000a1a565b62000d4660c0830184620009ff565b98975050505050505050565b600060208201905062000d69600083018462000a1a565b92915050565b6000604051905090565b600080fd5b600080fd5b62000d8e8162000a10565b811462000d9a57600080fd5b50565b60008135905062000dae8162000d83565b92915050565b60006020828403121562000dcd5762000dcc62000d79565b5b600062000ddd8482850162000d9d565b91505092915050565b6000819050919050565b600062000e1162000e0b62000e0584620009cb565b62000de6565b620009cb565b9050919050565b600062000e258262000df0565b9050919050565b600062000e398262000e18565b9050919050565b62000e4b8162000e2c565b82525050565b600060208201905062000e68600083018462000e40565b92915050565b6000819050919050565b62000e838162000e6e565b811462000e8f57600080fd5b50565b60008135905062000ea38162000e78565b92915050565b60006020828403121562000ec25762000ec162000d79565b5b600062000ed28482850162000e92565b91505092915050565b60008115159050919050565b62000ef28162000edb565b82525050565b600060208201905062000f0f600083018462000ee7565b92915050565b600060608201905062000f2c6000830186620009ff565b62000f3b602083018562000a1a565b818103604083015262000f4f818462000a84565b9050949350505050565b7f4e487b7100000000000000000000000000000000000000000000000000000000600052601160045260246000fd5b600062000f958262000a10565b915062000fa28362000a10565b925082820390508181111562000fbd5762000fbc62000f59565b5b92915050565b7f4e487b7100000000000000000000000000000000000000000000000000000000600052603260045260246000fd5b62000ffd81620009eb565b81146200100957600080fd5b50565b6000815190506200101d8162000ff2565b92915050565b6000602082840312156200103c576200103b62000d79565b5b60006200104c848285016200100c565b91505092915050565b600081519050620010668162000d83565b92915050565b60006020828403121562001085576200108462000d79565b5b6000620010958482850162001055565b91505092915050565b600080fd5b600080fd5b7f4e487b7100000000000000000000000000000000000000000000000000000000600052604160045260246000fd5b620010e28262000a73565b810181811067ffffffffffffffff82111715620011045762001103620010a8565b5b80604052505050565b60006200111962000d6f565b9050620011278282620010d7565b919050565b600067ffffffffffffffff8211156200114a5762001149620010a8565b5b620011558262000a73565b9050602081019050919050565b60006200117962001173846200112c565b6200110d565b905082815260208101848484011115620011985762001197620010a3565b5b620011a584828562000a47565b509392505050565b600082601f830112620011c557620011c46200109e565b5b8151620011d784826020860162001162565b91505092915050565b600060208284031215620011f957620011f862000d79565b5b600082015167ffffffffffffffff8111156200121a576200121962000d7e565b5b6200122884828501620011ad565b91505092915050565b600067ffffffffffffffff8211156200124f576200124e620010a8565b5b602082029050602081019050919050565b600080fd5b60006200127c620012768462001231565b6200110d565b90508083825260208201905060208402830185811115620012a257620012a162001260565b5b835b81811015620012cf5780620012ba88826200100c565b845260208401935050602081019050620012a4565b5050509392505050565b600082601f830112620012f157620012f06200109e565b5b81516200130384826020860162001265565b91505092915050565b60006020828403121562001325576200132462000d79565b5b600082015167ffffffffffffffff81111562001346576200134562000d7e565b5b6200135484828501620012d9565b91505092915050565b600067ffffffffffffffff8211156200137b576200137a620010a8565b5b602082029050602081019050919050565b600067ffffffffffffffff821115620013aa57620013a9620010a8565b5b620013b58262000a73565b9050602081019050919050565b6000620013d9620013d3846200138c565b6200110d565b905082815260208101848484011115620013f857620013f7620010a3565b5b6200140584828562000a47565b509392505050565b600082601f8301126200142557620014246200109e565b5b815162001437848260208601620013c2565b91505092915050565b60006200145762001451846200135d565b6200110d565b905080838252602082019050602084028301858111156200147d576200147c62001260565b5b835b81811015620014cb57805167ffffffffffffffff811115620014a657620014a56200109e565b5b808601620014b589826200140d565b855260208501945050506020810190506200147f565b5050509392505050565b600082601f830112620014ed57620014ec6200109e565b5b8151620014ff84826020860162001440565b91505092915050565b60006020828403121562001521576200152062000d79565b5b600082015167ffffffffffffffff81111562001542576200154162000d7e565b5b6200155084828501620014d5565b91505092915050565b600060408201905062001570600083018562000a1a565b6200157f6020830184620009ff565b9392505050565b6000620015938262000a10565b9150620015a08362000a10565b9250828201905080821115620015bb57620015ba62000f59565b5b92915050565b620015cc8162000edb565b8114620015d857600080fd5b50565b600081519050620015ec81620015c1565b92915050565b6000602082840312156200160b576200160a62000d79565b5b60006200161b84828501620015db565b9150509291505056fe60806040523480156200001157600080fd5b5033600360016101000a81548173ffffffffffffffffffffffffffffffffffffffff021916908373ffffffffffffffffffffffffffffffffffffffff1602179055506000600360006101000a81548160ff021916908315150217905550600460405180604001604052806040518060400160405280600381526020017f59657300000000000000000000000000000000000000000000000000000000008152508152602001600081525090806001815401808255809150506001900390600052602060002090600202016000909190919091506000820151816000019081620000fb9190620004bc565b50602082015181600101555050600460405180604001604052806040518060400160405280600281526020017f4e6f0000000000000000000000000000000000000000000000000000000000008152508152602001600081525090806001815401808255809150506001900390600052602060002090600202016000909190919091506000820151816000019081620001959190620004bc565b50602082015181600101555050600460405180604001604052806040518060400160405280600381526020017f546965000000000000000000000000000000000000000000000000000000000081525081526020016000815250908060018154018082558091505060019003906000526020600020906002020160009091909190915060008201518160000190816200022f9190620004bc565b50602082015181600101555050620005a3565b600081519050919050565b7f4e487b7100000000000000000000000000000000000000000000000000000000600052604160045260246000fd5b7f4e487b7100000000000000000000000000000000000000000000000000000000600052602260045260246000fd5b60006002820490506001821680620002c457607f821691505b602082108103620002da57620002d96200027c565b5b50919050565b60008190508160005260206000209050919050565b60006020601f8301049050919050565b600082821b905092915050565b600060088302620003447fffffffffffffffffffffffffffffffffffffffffffffffffffffffffffffffff8262000305565b62000350868362000305565b95508019841693508086168417925050509392505050565b6000819050919050565b6000819050919050565b60006200039d62000397620003918462000368565b62000372565b62000368565b9050919050565b6000819050919050565b620003b9836200037c565b620003d1620003c882620003a4565b84845462000312565b825550505050565b600090565b620003e8620003d9565b620003f5818484620003ae565b505050565b5b818110156200041d5762000411600082620003de565b600181019050620003fb565b5050565b601f8211156200046c576200043681620002e0565b6200044184620002f5565b8101602085101562000451578190505b620004696200046085620002f5565b830182620003fa565b50505b505050565b600082821c905092915050565b6000620004916000198460080262000471565b1980831691505092915050565b6000620004ac83836200047e565b9150826002028217905092915050565b620004c78262000242565b67ffffffffffffffff811115620004e357620004e26200024d565b5b620004ef8254620002ab565b620004fc82828562000421565b600060209050601f8311600181146200053457600084156200051f578287015190505b6200052b85826200049e565b8655506200059b565b601f1984166200054486620002e0565b60005b828110156200056e5784890151825560018201915060208501945060208101905062000547565b868310156200058e57848901516200058a601f8916826200047e565b8355505b6001600288020188555050505b505050505050565b6112cd80620005b36000396000f3fe608060405234801561001057600080fd5b50600436106100a95760003560e01c8063a4293b4911610071578063a4293b4914610168578063c2b6b58c14610186578063c7063fa0146101a4578063d8335b53146101c2578063e2ba53f0146101e0578063edf26d9b146101fe576100a9565b8063013cf08b146100ae57806302d947ef146100df5780634deda3d7146100fb578063609ff1bd14610119578063a3ec138d14610137575b600080fd5b6100c860048036038101906100c39190610aa4565b61022e565b6040516100d6929190610b70565b60405180910390f35b6100f960048036038101906100f49190610bfe565b6102ea565b005b6101036104eb565b6040516101109190610cfc565b60405180910390f35b61012161062a565b60405161012e9190610d1e565b60405180910390f35b610151600480360381019061014c9190610d39565b61078a565b60405161015f929190610d81565b60405180910390f35b6101706107bb565b60405161017d9190610ec1565b60405180910390f35b61018e6108d4565b60405161019b9190610ee3565b60405180910390f35b6101ac6108eb565b6040516101b99190610f0d565b60405180910390f35b6101ca610915565b6040516101d79190610f0d565b60405180910390f35b6101e861091d565b6040516101f59190610f28565b60405180910390f35b61021860048036038101906102139190610aa4565b6109d9565b6040516102259190610f0d565b60405180910390f35b6004818154811061023e57600080fd5b906000526020600020906002020160009150905080600001805461026190610f79565b80601f016020809104026020016040519081016040528092919081815260200182805461028d90610f79565b80156102da5780601f106102af576101008083540402835291602001916102da565b820191906000526020600020905b8154815290600101906020018083116102bd57829003601f168201915b5050505050908060010154905082565b600360009054906101000a900460ff161561033a576040517f08c379a000000000000000000000000000000000000000000000000000000000815260040161033190610ff6565b60405180910390fd5b60008060008373ffffffffffffffffffffffffffffffffffffffff1673ffffffffffffffffffffffffffffffffffffffff16815260200190815260200160002090508060000160009054906101000a900460ff16156103ce576040517f08c379a00000000000000000000000000000000000000000000000000000000081526004016103c590611062565b60405180910390fd5b60018160000160006101000a81548160ff021916908315150217905550828160010181905550600281600101541061043b576040517f08c379a0000000000000000000000000000000000000000000000000000000008152600401610432906110ce565b60405180910390fd5b8160016000600254815260200190815260200160002060006101000a81548173ffffffffffffffffffffffffffffffffffffffff021916908373ffffffffffffffffffffffffffffffffffffffff1602179055506001600260008282546104a2919061111d565b925050819055506001600484815481106104bf576104be611151565b5b906000526020600020906002020160010160008282546104df919061111d565b92505081905550505050565b6060600060025411610532576040517f08c379a0000000000000000000000000000000000000000000000000000000008152600401610529906111cc565b60405180910390fd5b600060025467ffffffffffffffff8111156105505761054f6111ec565b5b60405190808252806020026020018201604052801561057e5781602001602082028036833780820191505090505b50905060005b600254811015610622576001600082815260200190815260200160002060009054906101000a900473ffffffffffffffffffffffffffffffffffffffff168282815181106105d5576105d4611151565b5b602002602001019073ffffffffffffffffffffffffffffffffffffffff16908173ffffffffffffffffffffffffffffffffffffffff1681525050808061061a9061121b565b915050610584565b508091505090565b600080600460008154811061064257610641611151565b5b906000526020600020906002020160010154905060005b6004805490508110156107005760006004828154811061067c5761067b611151565b5b906000526020600020906002020160010154146106ed5781600482815481106106a8576106a7611151565b5b90600052602060002090600202016001015411156106ec57600481815481106106d4576106d3611151565b5b90600052602060002090600202016001015491508092505b5b80806106f89061121b565b915050610659565b50600460018154811061071657610715611151565b5b906000526020600020906002020160010154600460008154811061073d5761073c611151565b5b906000526020600020906002020160010154036107695760016004805490506107669190611263565b91505b600081036107865760016004805490506107839190611263565b91505b5090565b60006020528060005260406000206000915090508060000160009054906101000a900460ff16908060010154905082565b6060600060025467ffffffffffffffff8111156107db576107da6111ec565b5b60405190808252806020026020018201604052801561080e57816020015b60608152602001906001900390816107f95790505b50905060005b6002548110156108cc5761089b6000806001600085815260200190815260200160002060009054906101000a900473ffffffffffffffffffffffffffffffffffffffff1673ffffffffffffffffffffffffffffffffffffffff1673ffffffffffffffffffffffffffffffffffffffff16815260200190815260200160002060010154610a0c565b8282815181106108ae576108ad611151565b5b602002602001018190525080806108c49061121b565b915050610814565b508091505090565b6000600360009054906101000a900460ff16905090565b6000600360019054906101000a900473ffffffffffffffffffffffffffffffffffffffff16905090565b600030905090565b6060600461092961062a565b8154811061093a57610939611151565b5b9060005260206000209060020201600001805461095690610f79565b80601f016020809104026020016040519081016040528092919081815260200182805461098290610f79565b80156109cf5780601f106109a4576101008083540402835291602001916109cf565b820191906000526020600020905b8154815290600101906020018083116109b257829003601f168201915b5050505050905090565b60016020528060005260406000206000915054906101000a900473ffffffffffffffffffffffffffffffffffffffff1681565b6060602067ffffffffffffffff811115610a2957610a286111ec565b5b6040519080825280601f01601f191660200182016040528015610a5b5781602001600182028036833780820191505090505b509050816020820152919050565b600080fd5b6000819050919050565b610a8181610a6e565b8114610a8c57600080fd5b50565b600081359050610a9e81610a78565b92915050565b600060208284031215610aba57610ab9610a69565b5b6000610ac884828501610a8f565b91505092915050565b600081519050919050565b600082825260208201905092915050565b60005b83811015610b0b578082015181840152602081019050610af0565b60008484015250505050565b6000601f19601f8301169050919050565b6000610b3382610ad1565b610b3d8185610adc565b9350610b4d818560208601610aed565b610b5681610b17565b840191505092915050565b610b6a81610a6e565b82525050565b60006040820190508181036000830152610b8a8185610b28565b9050610b996020830184610b61565b9392505050565b600073ffffffffffffffffffffffffffffffffffffffff82169050919050565b6000610bcb82610ba0565b9050919050565b610bdb81610bc0565b8114610be657600080fd5b50565b600081359050610bf881610bd2565b92915050565b60008060408385031215610c1557610c14610a69565b5b6000610c2385828601610a8f565b9250506020610c3485828601610be9565b9150509250929050565b600081519050919050565b600082825260208201905092915050565b6000819050602082019050919050565b610c7381610bc0565b82525050565b6000610c858383610c6a565b60208301905092915050565b6000602082019050919050565b6000610ca982610c3e565b610cb38185610c49565b9350610cbe83610c5a565b8060005b83811015610cef578151610cd68882610c79565b9750610ce183610c91565b925050600181019050610cc2565b5085935050505092915050565b60006020820190508181036000830152610d168184610c9e565b905092915050565b6000602082019050610d336000830184610b61565b92915050565b600060208284031215610d4f57610d4e610a69565b5b6000610d5d84828501610be9565b91505092915050565b60008115159050919050565b610d7b81610d66565b82525050565b6000604082019050610d966000830185610d72565b610da36020830184610b61565b9392505050565b600081519050919050565b600082825260208201905092915050565b6000819050602082019050919050565b600081519050919050565b600082825260208201905092915050565b6000610dfd82610dd6565b610e078185610de1565b9350610e17818560208601610aed565b610e2081610b17565b840191505092915050565b6000610e378383610df2565b905092915050565b6000602082019050919050565b6000610e5782610daa565b610e618185610db5565b935083602082028501610e7385610dc6565b8060005b85811015610eaf5784840389528151610e908582610e2b565b9450610e9b83610e3f565b925060208a01995050600181019050610e77565b50829750879550505050505092915050565b60006020820190508181036000830152610edb8184610e4c565b905092915050565b6000602082019050610ef86000830184610d72565b92915050565b610f0781610bc0565b82525050565b6000602082019050610f226000830184610efe565b92915050565b60006020820190508181036000830152610f428184610b28565b905092915050565b7f4e487b7100000000000000000000000000000000000000000000000000000000600052602260045260246000fd5b60006002820490506001821680610f9157607f821691505b602082108103610fa457610fa3610f4a565b5b50919050565b7f566f74696e6720697320636c6f7365642e000000000000000000000000000000600082015250565b6000610fe0601183610adc565b9150610feb82610faa565b602082019050919050565b6000602082019050818103600083015261100f81610fd3565b9050919050565b7f416c726561647920766f7465642e000000000000000000000000000000000000600082015250565b600061104c600e83610adc565b915061105782611016565b602082019050919050565b6000602082019050818103600083015261107b8161103f565b9050919050565b7f566f7465206f6e6c7920796573206f72206e6f2e000000000000000000000000600082015250565b60006110b8601483610adc565b91506110c382611082565b602082019050919050565b600060208201905081810360008301526110e7816110ab565b9050919050565b7f4e487b7100000000000000000000000000000000000000000000000000000000600052601160045260246000fd5b600061112882610a6e565b915061113383610a6e565b925082820190508082111561114b5761114a6110ee565b5b92915050565b7f4e487b7100000000000000000000000000000000000000000000000000000000600052603260045260246000fd5b7f4e6f20616464726573736573206861766520766f746564207965742e00000000600082015250565b60006111b6601c83610adc565b91506111c182611180565b602082019050919050565b600060208201905081810360008301526111e5816111a9565b9050919050565b7f4e487b7100000000000000000000000000000000000000000000000000000000600052604160045260246000fd5b600061122682610a6e565b91507fffffffffffffffffffffffffffffffffffffffffffffffffffffffffffffffff8203611258576112576110ee565b5b600182019050919050565b600061126e82610a6e565b915061127983610a6e565b9250828203905081811115611291576112906110ee565b5b9291505056fea264697066735822122066a1e532c1e8bc68fc4576f6bdc763d56b0cf19e4384dbed3e51b4d7e76f07f964736f6c63430008110033a26469706673582212205b7e4420c1572eee840fdc8213d3bd5dfef82cb050a19cabadfd421823631d8164736f6c63430008110033",
  "immutableReferences": {},
  "source": "// SPDX-License-Identifier: MIT\r\n\r\npragma solidity >=0.8.0 <0.9.0;\r\n\r\nimport \"./Ballot.sol\";\r\n\r\n// import '@chainlink/contracts/src/v0.8/ChainlinkClient.sol';\r\n\r\ncontract BallotFactory {\r\n    // using Chainlink for Chainlink.Request;\r\n\r\n    Ballot[] public ballots;\r\n    uint256 public eta;\r\n    uint256 private fee;\r\n    bytes32 private jobId;\r\n\r\n    event RequestEta(bytes32 indexed requestId, uint256 eta);\r\n\r\n    constructor() {\r\n        // setChainlinkToken(0x326C977E6efc84E512bB9C30f76E30c160eD06FB);\r\n        // setChainlinkOracle(0xCC79157eb46F5624204f47AB42b3906cAA40eaB7);\r\n        // jobId = 'ca98366cc7314957b8c012c72f05aeeb';\r\n        // fee = (1 * LINK_DIVISIBILITY) / 10;\r\n    }\r\n\r\n    // function request() public returns (bytes32 requestId) {\r\n    //     Chainlink.Request memory req = buildChainlinkRequest(jobId, address(this), this.fulfill.selector);\r\n    //     req.add('get', 'http://3.23.88.121:8080/info');\r\n    //     req.add('path', 'data,actualDurationInMinutes');\r\n    //     req.addInt('times', 1);\r\n    //     return sendChainlinkRequest(req, fee);\r\n    // }\r\n    \r\n    // function fulfill(bytes32 _requestId, uint256 _eta) public recordChainlinkFulfillment(_requestId) {\r\n    //     emit RequestEta(_requestId, _eta);\r\n    //     eta = _eta;\r\n    // }\r\n\r\n    function viewStatus() public view returns (bool closed_) {\r\n        Ballot ballot = ballots[ballots.length - 1];\r\n        return (ballot.isClosed());\r\n    }\r\n\r\n    function viewFuture(uint) public view returns (uint) {\r\n        return block.timestamp + 63 minutes;\r\n    }\r\n\r\n    function viewNow() public view returns (uint) {\r\n        return block.timestamp;\r\n    }\r\n    \r\n    function create2(bytes32 _salt) public {\r\n        Ballot ballot = (new Ballot){salt: _salt}();\r\n        ballots.push(ballot);\r\n    }\r\n\r\n    function getBallot(uint _index) public view returns (\r\n        address ballotAddress,\r\n        uint winningProposal_,\r\n        string memory winnerName_) {\r\n        Ballot ballot = ballots[_index];\r\n        return (ballot.ballotAddress(),\r\n            ballot.winningProposal(), \r\n            ballot.winnerName());\r\n    }\r\n\r\n    function getCurrentBallot() public view returns (\r\n        address ballotAddress,\r\n        uint winningProposal_,\r\n        string memory winnerName_,\r\n        address[] memory ballotVoters_,\r\n        bytes[] memory ballotVotersInfo_,\r\n        uint amountOfBallots,\r\n        address whosCreator) {\r\n        uint length = ballots.length - 1;\r\n        amountOfBallots = ballots.length;\r\n        Ballot ballot = ballots[length];\r\n        return (ballot.ballotAddress(), \r\n            ballot.winningProposal(), \r\n            ballot.winnerName(), \r\n            ballot.ballotVoters(), \r\n            ballot.ballotVotersInfo(), \r\n            amountOfBallots,\r\n            ballot.whosCreator());\r\n    }\r\n\r\n    function voteCurrentBallot(uint _vote) public {\r\n        uint length = ballots.length - 1;\r\n        address user = msg.sender;\r\n        Ballot ballot = ballots[length];\r\n        ballot.vote(_vote, user);\r\n    }\r\n}",
  "sourcePath": "C:\\Users\\Mike\\Desktop\\JavaScript\\latetrain\\my-app\\contracts\\BallotFactory.sol",
  "compiler": {
    "name": "solc",
    "version": "0.8.17+commit.8df45f5f.Emscripten.clang"
  },
  "schemaVersion": "3.4.7",
  "updatedAt": "2022-09-14T08:54:18.422Z",
  "networkType": "ethereum",
  "devdoc": {
    "kind": "dev",
    "methods": {},
    "version": 1
  },
  "userdoc": {
    "kind": "user",
    "methods": {},
    "version": 1
  }
}