{
  "contractName": "Ballot",
  "abi": [
    {
      "inputs": [],
      "stateMutability": "nonpayable",
      "type": "constructor"
    },
    {
      "inputs": [
        {
          "internalType": "uint256",
          "name": "",
          "type": "uint256"
        }
      ],
      "name": "addresses",
      "outputs": [
        {
          "internalType": "address",
          "name": "",
          "type": "address"
        }
      ],
      "stateMutability": "view",
      "type": "function"
    },
    {
      "inputs": [
        {
          "internalType": "uint256",
          "name": "",
          "type": "uint256"
        }
      ],
      "name": "proposals",
      "outputs": [
        {
          "internalType": "string",
          "name": "name",
          "type": "string"
        },
        {
          "internalType": "uint256",
          "name": "voteCount",
          "type": "uint256"
        }
      ],
      "stateMutability": "view",
      "type": "function"
    },
    {
      "inputs": [
        {
          "internalType": "address",
          "name": "",
          "type": "address"
        }
      ],
      "name": "voters",
      "outputs": [
        {
          "internalType": "bool",
          "name": "voted",
          "type": "bool"
        },
        {
          "internalType": "uint256",
          "name": "vote",
          "type": "uint256"
        }
      ],
      "stateMutability": "view",
      "type": "function"
    },
    {
      "inputs": [],
      "name": "ballotAddress",
      "outputs": [
        {
          "internalType": "address",
          "name": "",
          "type": "address"
        }
      ],
      "stateMutability": "view",
      "type": "function"
    },
    {
      "inputs": [
        {
          "internalType": "uint256",
          "name": "proposal",
          "type": "uint256"
        },
        {
          "internalType": "address",
          "name": "user",
          "type": "address"
        }
      ],
      "name": "vote",
      "outputs": [],
      "stateMutability": "nonpayable",
      "type": "function"
    },
    {
      "inputs": [],
      "name": "ballotVoters",
      "outputs": [
        {
          "internalType": "address[]",
          "name": "",
          "type": "address[]"
        }
      ],
      "stateMutability": "view",
      "type": "function"
    },
    {
      "inputs": [],
      "name": "ballotVotersInfo",
      "outputs": [
        {
          "internalType": "bytes[]",
          "name": "",
          "type": "bytes[]"
        }
      ],
      "stateMutability": "view",
      "type": "function"
    },
    {
      "inputs": [],
      "name": "winningProposal",
      "outputs": [
        {
          "internalType": "uint256",
          "name": "winningProposal_",
          "type": "uint256"
        }
      ],
      "stateMutability": "view",
      "type": "function"
    },
    {
      "inputs": [],
      "name": "winnerName",
      "outputs": [
        {
          "internalType": "string",
          "name": "winnerName_",
          "type": "string"
        }
      ],
      "stateMutability": "view",
      "type": "function"
    },
    {
      "inputs": [],
      "name": "isClosed",
      "outputs": [
        {
          "internalType": "bool",
          "name": "closed_",
          "type": "bool"
        }
      ],
      "stateMutability": "view",
      "type": "function"
    },
    {
      "inputs": [],
      "name": "whosCreator",
      "outputs": [
        {
          "internalType": "address",
          "name": "",
          "type": "address"
        }
      ],
      "stateMutability": "view",
      "type": "function"
    }
  ],
  "bytecode": "0x60806040523480156200001157600080fd5b5033600360016101000a81548173ffffffffffffffffffffffffffffffffffffffff021916908373ffffffffffffffffffffffffffffffffffffffff1602179055506000600360006101000a81548160ff021916908315150217905550600460405180604001604052806040518060400160405280600381526020017f59657300000000000000000000000000000000000000000000000000000000008152508152602001600081525090806001815401808255809150506001900390600052602060002090600202016000909190919091506000820151816000019081620000fb9190620004bc565b50602082015181600101555050600460405180604001604052806040518060400160405280600281526020017f4e6f0000000000000000000000000000000000000000000000000000000000008152508152602001600081525090806001815401808255809150506001900390600052602060002090600202016000909190919091506000820151816000019081620001959190620004bc565b50602082015181600101555050600460405180604001604052806040518060400160405280600381526020017f546965000000000000000000000000000000000000000000000000000000000081525081526020016000815250908060018154018082558091505060019003906000526020600020906002020160009091909190915060008201518160000190816200022f9190620004bc565b50602082015181600101555050620005a3565b600081519050919050565b7f4e487b7100000000000000000000000000000000000000000000000000000000600052604160045260246000fd5b7f4e487b7100000000000000000000000000000000000000000000000000000000600052602260045260246000fd5b60006002820490506001821680620002c457607f821691505b602082108103620002da57620002d96200027c565b5b50919050565b60008190508160005260206000209050919050565b60006020601f8301049050919050565b600082821b905092915050565b600060088302620003447fffffffffffffffffffffffffffffffffffffffffffffffffffffffffffffffff8262000305565b62000350868362000305565b95508019841693508086168417925050509392505050565b6000819050919050565b6000819050919050565b60006200039d62000397620003918462000368565b62000372565b62000368565b9050919050565b6000819050919050565b620003b9836200037c565b620003d1620003c882620003a4565b84845462000312565b825550505050565b600090565b620003e8620003d9565b620003f5818484620003ae565b505050565b5b818110156200041d5762000411600082620003de565b600181019050620003fb565b5050565b601f8211156200046c576200043681620002e0565b6200044184620002f5565b8101602085101562000451578190505b620004696200046085620002f5565b830182620003fa565b50505b505050565b600082821c905092915050565b6000620004916000198460080262000471565b1980831691505092915050565b6000620004ac83836200047e565b9150826002028217905092915050565b620004c78262000242565b67ffffffffffffffff811115620004e357620004e26200024d565b5b620004ef8254620002ab565b620004fc82828562000421565b600060209050601f8311600181146200053457600084156200051f578287015190505b6200052b85826200049e565b8655506200059b565b601f1984166200054486620002e0565b60005b828110156200056e5784890151825560018201915060208501945060208101905062000547565b868310156200058e57848901516200058a601f8916826200047e565b8355505b6001600288020188555050505b505050505050565b6112cd80620005b36000396000f3fe608060405234801561001057600080fd5b50600436106100a95760003560e01c8063a4293b4911610071578063a4293b4914610168578063c2b6b58c14610186578063c7063fa0146101a4578063d8335b53146101c2578063e2ba53f0146101e0578063edf26d9b146101fe576100a9565b8063013cf08b146100ae57806302d947ef146100df5780634deda3d7146100fb578063609ff1bd14610119578063a3ec138d14610137575b600080fd5b6100c860048036038101906100c39190610aa4565b61022e565b6040516100d6929190610b70565b60405180910390f35b6100f960048036038101906100f49190610bfe565b6102ea565b005b6101036104eb565b6040516101109190610cfc565b60405180910390f35b61012161062a565b60405161012e9190610d1e565b60405180910390f35b610151600480360381019061014c9190610d39565b61078a565b60405161015f929190610d81565b60405180910390f35b6101706107bb565b60405161017d9190610ec1565b60405180910390f35b61018e6108d4565b60405161019b9190610ee3565b60405180910390f35b6101ac6108eb565b6040516101b99190610f0d565b60405180910390f35b6101ca610915565b6040516101d79190610f0d565b60405180910390f35b6101e861091d565b6040516101f59190610f28565b60405180910390f35b61021860048036038101906102139190610aa4565b6109d9565b6040516102259190610f0d565b60405180910390f35b6004818154811061023e57600080fd5b906000526020600020906002020160009150905080600001805461026190610f79565b80601f016020809104026020016040519081016040528092919081815260200182805461028d90610f79565b80156102da5780601f106102af576101008083540402835291602001916102da565b820191906000526020600020905b8154815290600101906020018083116102bd57829003601f168201915b5050505050908060010154905082565b600360009054906101000a900460ff161561033a576040517f08c379a000000000000000000000000000000000000000000000000000000000815260040161033190610ff6565b60405180910390fd5b60008060008373ffffffffffffffffffffffffffffffffffffffff1673ffffffffffffffffffffffffffffffffffffffff16815260200190815260200160002090508060000160009054906101000a900460ff16156103ce576040517f08c379a00000000000000000000000000000000000000000000000000000000081526004016103c590611062565b60405180910390fd5b60018160000160006101000a81548160ff021916908315150217905550828160010181905550600281600101541061043b576040517f08c379a0000000000000000000000000000000000000000000000000000000008152600401610432906110ce565b60405180910390fd5b8160016000600254815260200190815260200160002060006101000a81548173ffffffffffffffffffffffffffffffffffffffff021916908373ffffffffffffffffffffffffffffffffffffffff1602179055506001600260008282546104a2919061111d565b925050819055506001600484815481106104bf576104be611151565b5b906000526020600020906002020160010160008282546104df919061111d565b92505081905550505050565b6060600060025411610532576040517f08c379a0000000000000000000000000000000000000000000000000000000008152600401610529906111cc565b60405180910390fd5b600060025467ffffffffffffffff8111156105505761054f6111ec565b5b60405190808252806020026020018201604052801561057e5781602001602082028036833780820191505090505b50905060005b600254811015610622576001600082815260200190815260200160002060009054906101000a900473ffffffffffffffffffffffffffffffffffffffff168282815181106105d5576105d4611151565b5b602002602001019073ffffffffffffffffffffffffffffffffffffffff16908173ffffffffffffffffffffffffffffffffffffffff1681525050808061061a9061121b565b915050610584565b508091505090565b600080600460008154811061064257610641611151565b5b906000526020600020906002020160010154905060005b6004805490508110156107005760006004828154811061067c5761067b611151565b5b906000526020600020906002020160010154146106ed5781600482815481106106a8576106a7611151565b5b90600052602060002090600202016001015411156106ec57600481815481106106d4576106d3611151565b5b90600052602060002090600202016001015491508092505b5b80806106f89061121b565b915050610659565b50600460018154811061071657610715611151565b5b906000526020600020906002020160010154600460008154811061073d5761073c611151565b5b906000526020600020906002020160010154036107695760016004805490506107669190611263565b91505b600081036107865760016004805490506107839190611263565b91505b5090565b60006020528060005260406000206000915090508060000160009054906101000a900460ff16908060010154905082565b6060600060025467ffffffffffffffff8111156107db576107da6111ec565b5b60405190808252806020026020018201604052801561080e57816020015b60608152602001906001900390816107f95790505b50905060005b6002548110156108cc5761089b6000806001600085815260200190815260200160002060009054906101000a900473ffffffffffffffffffffffffffffffffffffffff1673ffffffffffffffffffffffffffffffffffffffff1673ffffffffffffffffffffffffffffffffffffffff16815260200190815260200160002060010154610a0c565b8282815181106108ae576108ad611151565b5b602002602001018190525080806108c49061121b565b915050610814565b508091505090565b6000600360009054906101000a900460ff16905090565b6000600360019054906101000a900473ffffffffffffffffffffffffffffffffffffffff16905090565b600030905090565b6060600461092961062a565b8154811061093a57610939611151565b5b9060005260206000209060020201600001805461095690610f79565b80601f016020809104026020016040519081016040528092919081815260200182805461098290610f79565b80156109cf5780601f106109a4576101008083540402835291602001916109cf565b820191906000526020600020905b8154815290600101906020018083116109b257829003601f168201915b5050505050905090565b60016020528060005260406000206000915054906101000a900473ffffffffffffffffffffffffffffffffffffffff1681565b6060602067ffffffffffffffff811115610a2957610a286111ec565b5b6040519080825280601f01601f191660200182016040528015610a5b5781602001600182028036833780820191505090505b509050816020820152919050565b600080fd5b6000819050919050565b610a8181610a6e565b8114610a8c57600080fd5b50565b600081359050610a9e81610a78565b92915050565b600060208284031215610aba57610ab9610a69565b5b6000610ac884828501610a8f565b91505092915050565b600081519050919050565b600082825260208201905092915050565b60005b83811015610b0b578082015181840152602081019050610af0565b60008484015250505050565b6000601f19601f8301169050919050565b6000610b3382610ad1565b610b3d8185610adc565b9350610b4d818560208601610aed565b610b5681610b17565b840191505092915050565b610b6a81610a6e565b82525050565b60006040820190508181036000830152610b8a8185610b28565b9050610b996020830184610b61565b9392505050565b600073ffffffffffffffffffffffffffffffffffffffff82169050919050565b6000610bcb82610ba0565b9050919050565b610bdb81610bc0565b8114610be657600080fd5b50565b600081359050610bf881610bd2565b92915050565b60008060408385031215610c1557610c14610a69565b5b6000610c2385828601610a8f565b9250506020610c3485828601610be9565b9150509250929050565b600081519050919050565b600082825260208201905092915050565b6000819050602082019050919050565b610c7381610bc0565b82525050565b6000610c858383610c6a565b60208301905092915050565b6000602082019050919050565b6000610ca982610c3e565b610cb38185610c49565b9350610cbe83610c5a565b8060005b83811015610cef578151610cd68882610c79565b9750610ce183610c91565b925050600181019050610cc2565b5085935050505092915050565b60006020820190508181036000830152610d168184610c9e565b905092915050565b6000602082019050610d336000830184610b61565b92915050565b600060208284031215610d4f57610d4e610a69565b5b6000610d5d84828501610be9565b91505092915050565b60008115159050919050565b610d7b81610d66565b82525050565b6000604082019050610d966000830185610d72565b610da36020830184610b61565b9392505050565b600081519050919050565b600082825260208201905092915050565b6000819050602082019050919050565b600081519050919050565b600082825260208201905092915050565b6000610dfd82610dd6565b610e078185610de1565b9350610e17818560208601610aed565b610e2081610b17565b840191505092915050565b6000610e378383610df2565b905092915050565b6000602082019050919050565b6000610e5782610daa565b610e618185610db5565b935083602082028501610e7385610dc6565b8060005b85811015610eaf5784840389528151610e908582610e2b565b9450610e9b83610e3f565b925060208a01995050600181019050610e77565b50829750879550505050505092915050565b60006020820190508181036000830152610edb8184610e4c565b905092915050565b6000602082019050610ef86000830184610d72565b92915050565b610f0781610bc0565b82525050565b6000602082019050610f226000830184610efe565b92915050565b60006020820190508181036000830152610f428184610b28565b905092915050565b7f4e487b7100000000000000000000000000000000000000000000000000000000600052602260045260246000fd5b60006002820490506001821680610f9157607f821691505b602082108103610fa457610fa3610f4a565b5b50919050565b7f566f74696e6720697320636c6f7365642e000000000000000000000000000000600082015250565b6000610fe0601183610adc565b9150610feb82610faa565b602082019050919050565b6000602082019050818103600083015261100f81610fd3565b9050919050565b7f416c726561647920766f7465642e000000000000000000000000000000000000600082015250565b600061104c600e83610adc565b915061105782611016565b602082019050919050565b6000602082019050818103600083015261107b8161103f565b9050919050565b7f566f7465206f6e6c7920796573206f72206e6f2e000000000000000000000000600082015250565b60006110b8601483610adc565b91506110c382611082565b602082019050919050565b600060208201905081810360008301526110e7816110ab565b9050919050565b7f4e487b7100000000000000000000000000000000000000000000000000000000600052601160045260246000fd5b600061112882610a6e565b915061113383610a6e565b925082820190508082111561114b5761114a6110ee565b5b92915050565b7f4e487b7100000000000000000000000000000000000000000000000000000000600052603260045260246000fd5b7f4e6f20616464726573736573206861766520766f746564207965742e00000000600082015250565b60006111b6601c83610adc565b91506111c182611180565b602082019050919050565b600060208201905081810360008301526111e5816111a9565b9050919050565b7f4e487b7100000000000000000000000000000000000000000000000000000000600052604160045260246000fd5b600061122682610a6e565b91507fffffffffffffffffffffffffffffffffffffffffffffffffffffffffffffffff8203611258576112576110ee565b5b600182019050919050565b600061126e82610a6e565b915061127983610a6e565b9250828203905081811115611291576112906110ee565b5b9291505056fea264697066735822122066a1e532c1e8bc68fc4576f6bdc763d56b0cf19e4384dbed3e51b4d7e76f07f964736f6c63430008110033",
  "immutableReferences": {},
  "source": "// SPDX-License-Identifier: MIT\r\n\r\npragma solidity >=0.8.0 <0.9.0;\r\n\r\n// import \"@chainlink/contracts/src/v0.8/KeeperCompatible.sol\";\r\n\r\ncontract Ballot {\r\n   \r\n    struct Voter {\r\n        bool voted;\r\n        uint vote;\r\n    }\r\n\r\n    struct Proposal {\r\n        string name;\r\n        uint voteCount;\r\n    }\r\n\r\n    mapping(address => Voter) public voters;\r\n    mapping(uint => address) public addresses;\r\n    uint addressCount;\r\n    bool closed;\r\n    address creator;\r\n\r\n    Proposal[] public proposals;\r\n\r\n    constructor() {\r\n        creator = msg.sender;\r\n        closed = false;\r\n\r\n        proposals.push(Proposal({\r\n            name: \"Yes\",\r\n            voteCount: 0\r\n        }));\r\n\r\n        proposals.push(Proposal({\r\n            name: \"No\",\r\n            voteCount: 0\r\n        }));\r\n\r\n        proposals.push(Proposal({\r\n            name: \"Tie\",\r\n            voteCount: 0\r\n        }));\r\n    }\r\n\r\n    function ballotAddress() public view returns (address) {\r\n        return address(this);\r\n    }\r\n\r\n    function vote(uint proposal, address user) public {\r\n        require(!closed, \"Voting is closed.\");\r\n        Voter storage sender = voters[user];\r\n        require(!sender.voted, \"Already voted.\");\r\n        sender.voted = true;\r\n        sender.vote = proposal;\r\n        require(sender.vote < 2, \"Vote only yes or no.\");\r\n        addresses[addressCount] = user;\r\n        addressCount += 1;\r\n        proposals[proposal].voteCount += 1;\r\n    }\r\n    \r\n    function ballotVoters() public view returns (address[] memory) {\r\n        require(addressCount > 0, \"No addresses have voted yet.\");\r\n        address[] memory voterArray = new address[](addressCount);\r\n        for (uint i = 0; i < addressCount; i++) {\r\n            voterArray[i] = addresses[i];\r\n        }\r\n        return voterArray;\r\n    }\r\n\r\n    function toBytes(uint256 x) private pure returns (bytes memory b) {\r\n        b = new bytes(32);\r\n        assembly { mstore(add(b, 32), x) }\r\n    }\r\n\r\n    function ballotVotersInfo() public view returns (bytes[] memory) {\r\n        bytes[] memory voterInfo = new bytes[](addressCount);\r\n        for (uint i = 0; i < addressCount; i++) {\r\n            voterInfo[i] = toBytes(voters[addresses[i]].vote);\r\n        }\r\n        return voterInfo;\r\n    }\r\n\r\n    function winningProposal() public view returns (uint winningProposal_) {\r\n        uint winningVoteCount = proposals[0].voteCount;\r\n\r\n        for (uint p = 0; p < proposals.length; p++) {\r\n            if (proposals[p].voteCount != 0) {\r\n                if (proposals[p].voteCount > winningVoteCount) {\r\n                    winningVoteCount = proposals[p].voteCount;\r\n                    winningProposal_ = p;\r\n                }\r\n            }\r\n        }\r\n\r\n        if (proposals[0].voteCount == proposals[1].voteCount) {\r\n            winningProposal_ = proposals.length - 1;\r\n        }\r\n\r\n        if (winningVoteCount == 0) {\r\n            winningProposal_ = proposals.length - 1;\r\n        }\r\n    }\r\n\r\n    function winnerName() public view returns (string memory winnerName_)\r\n    {\r\n        winnerName_ = proposals[winningProposal()].name;\r\n    }\r\n\r\n    function isClosed() external view returns (bool closed_) {\r\n        return closed;\r\n    }\r\n\r\n    function whosCreator() external view returns (address) {\r\n        return creator;\r\n    }\r\n}\r\n\r\n// Chainlink\r\n\r\n    // function checkUpkeep(bytes calldata /* checkData */) external view override returns (bool upkeepNeeded, bytes memory /* performData */) {\r\n    //     upkeepNeeded = (block.timestamp - lastTimeStamp) > interval;\r\n    //     // We don't use the checkData in this example. The checkData is defined when the Upkeep was registered.\r\n    // }\r\n\r\n    // function performUpkeep(bytes calldata /* performData */) external override {\r\n    //     //We highly recommend revalidating the upkeep in the performUpkeep function\r\n    //     if ((block.timestamp - lastTimeStamp) > interval ) {\r\n    //         lastTimeStamp = block.timestamp;\r\n    //         counter = counter + 1;\r\n    //     }\r\n    //     // We don't use the performData in this example. The performData is generated by the Keeper's call to your checkUpkeep function\r\n    // }\r\n\r\n    // use CL API to fetch start and eta for Time Based Keeper's arguments\r\n    // Order of Things;\r\n    // 1. Create Contract from factory.\r\n    // 2. Time Based upkeep at start time to use API to determine whether trip is active.\r\n    // 3. Close voting if trip active === true.\r\n    // 4. If active trip === false, repeat step 2 for new trip.\r\n    // 5. Time Based upkeep at ETA using CL API to determine if trip is late.\r\n    // 6. If ended === true. Reset to step 1.\r\n",
  "sourcePath": "C:\\Users\\Mike\\Desktop\\JavaScript\\latetrain\\my-app\\contracts\\Ballot.sol",
  "compiler": {
    "name": "solc",
    "version": "0.8.17+commit.8df45f5f.Emscripten.clang"
  },
  "schemaVersion": "3.4.7",
  "updatedAt": "2022-09-14T08:54:18.415Z",
  "networkType": "ethereum",
  "devdoc": {
    "kind": "dev",
    "methods": {},
    "version": 1
  },
  "userdoc": {
    "kind": "user",
    "methods": {},
    "version": 1
  }
}